S0140000737461725F747261636B65722E737265630B
S113000010210020411700003918000039180000A1
S113001000000000000000000000000000000000DC
S1130020000000000000000000000000391800007B
S1130030000000000000000039180000391800001A
S11300403918000039180000391800003918000068
S1130050F9040000391800003918000039180000AC
S11300603918000039180000391800003918000048
S11300703918000039180000391800003918000038
S11300803918000039180000391800003918000028
S113009039180000000000000000000039180000BA
S11300A03918000039180000391800003918000008
S11300B00000000010B5064C2378002B07D1054B37
S11300C0002B02D0044800E000BF0123237010BDC0
S11300D07000002000000000684B0000084B10B5C1
S11300E0002B03D00749084800E000BF0748036815
S11300F0002B00D110BD064B002BFBD09847F9E72D
S11301000000000074000020684B0000684B0000F1
S11301100000000080B582B000AF78607B68002BDF
S11301200CD0084B7A685A60064B00229A60C0468D
S1130130044B1A6880235B021340F9D0C046BD46C5
S113014002B080BD10E000E080B500AF00200F4B8E
S1130150984702000E4B1A600D4B18680D4BFA229B
S11301609100984703001A00094B1A60084B18685D
S1130170084BFA229100984703001A00064B1A60B4
S1130180064B05221A60C046BD4680BDAD14000072
S113019000000020AD2500000400002010E000E075
S11301A080B582B000AF786004E0074B1B6818008C
S11301B0064B98477B685A1E7A60002BF5D1C046DF
S11301C0BD4602B080BDC0460400002015010000F9
S11301D080B582B000AF786004E0074B1B6818005C
S11301E0064B98477B685A1E7A60002BF5D1C046AF
S11301F0BD4602B080BDC0460000002015010000CD
S113020080B582B000AF78607B6800221A70C04667
S1130210BD4602B080BD000080B582B000AF0200D0
S11302203960FB1D1A70FB1D1B78012B0AD0022BB1
S11302300FD0002B14D10E4B0D4A91693A680A4332
S11302409A610FE00A4B0A4AD1693A680A43DA61B3
S113025008E0074B064A116A3A680A431A6201E049
S1130260172300E000231800BD4602B080BDC0463D
S11302700004004080B582B000AF0200FB1D1A707C
S1130280064BFA1D127811001F220A4001219140E9
S11302900A001A60C046BD4602B080BD00E100E01D
S11302A080B582B000AF0F4B3B6000237B6011E050
S11302B07B689B0008229446BC446344083B1B684B
S11302C05B78DBB25BB2002B01DA012306E07B68CA
S11302D001337B607B68002BEAD000231800BD4605
S11302E002B080BD0018004080B584B000AF2D4B33
S11302F07B60402100202C4B98473B0018002B4B7F
S113030098473B0000221A703B0019000520284B37
S113031098470520274B98470023FB6018E0FB68AB
S11303209B0010229446BC4463440C3B1A68FB684F
S11303309B0010218C46BC4463440C3B1B681B7817
S1130340DBB201210B43DBB21370FB680133FB60AA
S1130350FB68002BE3D0C046174B9847031EFBD124
S11303600B23FB1800221A700DE00B23FB181A78DC
S1130370124B92000021D1500B23FB181A780B2347
S1130380FB1801321A700B23FB181B780F2BECD9C6
S113039004200B4B98470B4B9847C046BD4604B00E
S11303A080BDC04600180040190200000102000090
S11303B085150000C9150000A1020000C800002036
S11303C075020000C903000080B582B000AF154B70
S11303D03B6000237B6018E07B689B000822944606
S11303E0BC446344083B1A687B689B0008218C4624
S11303F0BC446344083B1B681B78DBB202210B43FB
S1130400DBB213707B6801337B607B68002BE3D025
S1130410C046054B9847031EFBD1C046BD4602B0FB
S113042080BDC04600180040A102000080B584B021
S113043000AF0200FB1D1A700F23FB18FA1D12787F
S113044052091A700F23FB181B78002B0CD1094B8F
S1130450BB600F23FB181B789B0010229446BC44FE
S11304606344083B1B6800E000231800BD4604B049
S113047080BDC0460018004080B584B000AF0200C3
S1130480FB1D1A70FB1D1B7818000B4B98470300CB
S1130490FB60FB1D1B781F22134001229A401300AE
S11304A0BB60FB681B69BA6813405A1E9341DBB2F8
S11304B01800BD4604B080BD2D04000080B584B092
S11304C000AF0200FB1D1A70FB1D1B781800094BBE
S11304D098470300FB60FB1D1B781F221340012279
S11304E09A401300BB60FB68BA681A61C046BD46F7
S11304F004B080BD2D04000080B500AF154B002270
S11305001A7020E0134B1B781800134B9847031EF6
S113051013D0104B1B781800104B98470D4B1B78C9
S11305201A000F4B9200D358002B06D0094B1B78AE
S11305301A000B4B9200D3589847064B1B78013393
S1130540DAB2044B1A70034B1B780F2BDAD9C0466E
S1130550BD4680BD0801002079040000BD040000F0
S1130560C800002080B582B000AF78607B685B096A
S11305701800BD4602B080BD80B582B000AF78607F
S11305807B68DB01034A944663441800BD4602B00D
S113059080BDC0460044004180B582B000AF7860A1
S11305A07B681800054B984703001800044B9847D4
S11305B003001800BD4602B080BDC04665050000BA
S11305C07905000080B582B000AF78607B681F2297
S11305D0134001229A4013001800BD4602B080BDAA
S11305E080B58AB000AFF860B9607A60FB68180023
S11305F02B4B984703003B6200237B620023FB6183
S11306007B6A8022920213437B627B682022134020
S113061003D17B681022134004D07B6A8022D2026B
S113062013437B627B688022134004D07B6A802260
S1130630D20313437B627B681A06F0231B05134025
S1130640FB61BB681B041B0CBB61BB681B0C7B619F
S1130650BA697B6A1A43FB691343A022D2051A4381
S11306603B6A9A627A697B6A1A43FB691343D02214
S113067012061A433B6A9A627B682022134003D015
S11306803B6ABA685A6106E07B681022134002D0C4
S11306903B6ABA689A61C046BD460AB080BDC0468E
S11306A07905000090B583B000AF786039607B684D
S11306B01800084B984704007B681800064B9847BD
S11306C001003B681A002000044B9847C046BD4611
S11306D003B090BD65050000C5050000E1050000FC
S11306E080B584B000AF78600A00FB1C1A707B6888
S11306F01800184B98470300FB60FB1C1B78012B68
S113070007D17B681800144B98470200FB689A6075
S11307100AE0FB1C1B78002B06D17B6818000E4BEB
S113072098470200FB685A60FA6840217B68D31836
S11307305B181B78DBB202221343D8B2FA6840215B
S11307407B68D3185B18021C1A70C046BD4604B0FF
S113075080BDC04699050000C505000090B583B072
S113076000AF78600A00FB1C1A70FB1C1B78002B7E
S11307700BD07B6818000C4B984704007B6818006A
S11307800A4B98470300A3610AE07B681800064BF4
S1130790984704007B681800044B98470300636182
S11307A0C046BD4603B090BD99050000C5050000D4
S11307B080B582B000AF786039603A687B68110018
S11307C01800034B9847C046BD4602B080BDC046E2
S11307D0A506000080B582B000AF78600A00FB1C5B
S11307E01A70FB1C1A787B6811001800024B98479A
S11307F0C046BD4602B080BDE106000080B582B0AF
S113080000AF78600A00FB1C1A70FB1C1A787B6826
S113081011001800024B9847C046BD4602B080BD87
S11308205D07000080B500AF01210120184B9847F7
S113083000210120174B984701210020144B9847B1
S113084000210020134B984701212320104B984787
S1130850002123200F4B9847012122200C4B98475D
S1130860002122200B4B984700213620084B984743
S113087010213620084B984700210F20044B98473D
S113088010210F20044B9847C046BD4680BDC0468A
S1130890D5070000FD070000B107000080B582B055
S11308A000AF104B1B68002B12D1EFF310837B6059
S11308B07B68002B09D172B6BFF35F8F0A4B00220D
S11308C01A700A4B01221A7002E0084B00221A70B7
S11308D0044B1B685A1C034B1A60C046BD4602B049
S11308E080BDC0468C00002008000020900000203D
S11308F080B500AF0B4B1B685A1E0A4B1A60094B9C
S11309001B68002B0AD1084B1B78DBB2002B05D0E7
S1130910064B01221A70BFF35F8F62B6C046BD4614
S113092080BDC0468C0000209000002008000020FC
S113093080B582B000AF78607B6800221A70C04630
S1130940BD4602B080BD000080B582B000AF020099
S11309503960FB1D1A70FB1D1B78012B0AD0022B7A
S11309600FD0002B14D10E4B0D4A91693A680A43FB
S11309709A610FE00A4B0A4AD1693A680A43DA617C
S113098008E0074B064A116A3A680A431A6201E012
S1130990172300E000231800BD4602B080BDC04606
S11309A00004004080B584B000AF78607B681B68A9
S11309B0FB60FB689B7ADBB25BB2002B01DA01239C
S11309C000E000231800BD4604B080BD80B584B0AB
S11309D000AF78607B681B68FB60C0467B681800CA
S11309E0074B9847031EF9D1FB681B889BB2022270
S11309F013439AB2FB681A80C046BD4604B080BD5A
S1130A00A509000080B584B000AF78607B681B68DE
S1130A10FB60C0467B6818000A4B9847031EF9D157
S1130A20FB68C1229A71FB68C1221A72FB681B8899
S1130A309BB2022293439AB2FB681A80C046BD4619
S1130A4004B080BDA509000080B584B000AF786013
S1130A507B681B68FB607B6818000A4B9847C0469C
S1130A607B681800084B9847031EF9D1FB681B8864
S1130A709BB2012213439AB2FB681A80C046BD465A
S1130A8004B080BD050A0000A509000080B584B04B
S1130A9000AF786039607B681B68BB603B681A886C
S1130AA0BB681A803B689B78002B3AD0012B00D09E
S1130AB06CE0BB681B889AB2BB681A803B68DB7821
S1130AC0002B07D0BB681B889BB2802213439AB2C9
S1130AD0BB681A800F23FB1800221A701BE0C04663
S1130AE07B681800334B9847031EF9D10F23FB187A
S1130AF01A783B6802329200D1580F23FB181A78F7
S1130B007B6818002C4B98470F23FB181A780F2387
S1130B10FB1801321A700F23FB181B78002BDED050
S1130B2036E0BB681B889BB2042213439AB2BB68AD
S1130B301A803B68DB78002B01D0172336E00E23A4
S1130B40FB1800221A701BE0C0467B681800194B82
S1130B509847031EF9D10E23FB181A783B6802321A
S1130B609200D1580E23FB181A787B681800124B98
S1130B7098470E23FB181A780E23FB1801321A70BB
S1130B800E23FB181B78012BDED901E017230DE09F
S1130B903B681B79002B08D0BB685B889BB2802222
S1130BA0D20113439AB2BB685A8000231800BD4691
S1130BB004B080BDA5090000490D000080B586B0D1
S1130BC000AFF860B9607A60FB68BA681A602021E7
S1130BD00020174B98471423FB181800154B98470F
S1130BE01423FB1802221A701423FB181900042082
S1130BF0114B98470420114B9847FB681800104B81
S1130C0098477B689A78FB681A717B681A79FB6845
S1130C105A710C4BFA681A607A68FB681100180064
S1130C20094B984703001800BD4606B080BDC04676
S1130C30490900003109000085150000C9150000AC
S1130C40490A00000C0100208D0A000080B584B020
S1130C5000AF786039607B681B68FB60C0467B68C6
S1130C601800104B9847031EF9D17B681B79002BA1
S1130C7005D0012B0ED1FB683A681A610CE03B6881
S1130C80094A934201D9172307E03B689AB2FB68EB
S1130C901A8201E0172300E000231800BD4604B0C7
S1130CA080BDC046A5090000FFFF000080B584B0E8
S1130CB000AF78607B681B68BB607B685B7901224E
S1130CC05340DBB2002B0AD0BB681C4A5A80C04692
S1130CD07B6818001A4B9847031EF9D116E0BB68CD
S1130CE05B889BB21A008023DB0113400ED1BB68E2
S1130CF05B889BB2134A13439AB2BB685A80C046BE
S1130D007B6818000E4B9847031EF9D17B681B794A
S1130D10002B05D0012B08D1BB681B69FB6007E0E1
S1130D20BB681B8A9BB2FB6002E00023FB60C046E9
S1130D30FB681800BD4604B080BDC0460080FFFFBC
S1130D40A509000000C0FFFF80B586B000AFF860C1
S1130D50B960FB1D1A70FB681B687B61C046FB68A9
S1130D6018001A4B9847031EF9D1FB681B79002B16
S1130D700FD0012B22D1FB1D1B78012B01D9172386
S1130D801FE0FB1D1A787B6906329200B968D150C6
S1130D9016E0FB1D1B78022B01D9172311E0BB6859
S1130DA00B4A934201D917230BE0FB1D1A78BB6849
S1130DB099B27B690C325200D15201E01A2300E04F
S1130DC000231800BD4606B080BDC046A50900003A
S1130DD0FFFF000080B582B000AF78607B6801221D
S1130DE05A607B6800225A707B6806221A707B68FE
S1130DF000221A727B6800225A72C046BD4602B0B5
S1130E0080BD80B582B000AF78607B6803221A7021
S1130E107B6800225A707B6801229A70C046BD46E6
S1130E2002B080BD80B582B000AF0200FB1D1A7015
S1130E30034AFB1D1B781372C046BD4602B080BD39
S1130E400004004080B582B000AF0200FB1D1A70A0
S1130E50BB1D0A1C1A70FB1D1B78012B08D0022B2A
S1130E600BD0002B0ED10B4ABB1D1B7853720BE029
S1130E70084ABB1D1B78937206E0064ABB1D1B780B
S1130E80D37201E0172300E000231800BD4602B02E
S1130E9080BDC0460004004080B582B000AF0200AF
S1130EA0FB1D1A70084AFB1D1B780F210B40D9B299
S1130EB053680F20014049001E2083430B435360B5
S1130EC0C046BD4602B080BD0040004180B500AFC1
S1130ED0C046044BDB6810221340FAD0C046BD461E
S1130EE080BDC0460008004080B500AF0C4B022214
S1130EF09A840C4B98470A4A0B4B9B68D362084A66
S1130F00094B5B689362064B00229A84054B984711
S1130F10034A054B1B689BB29384C046BD4680BD03
S1130F2000080040CD0E00009400002080B582B07F
S1130F3000AF0200FB1D1A70FB1D1B78082B41D863
S1130F409A00234BD3181B689F46224B1B693AE037
S1130F50214B1B6A9B059B0FDBB21A001F4BD3402E
S1130F6031E080231B022EE080231B022BE0194B6F
S1130F705B6928E0174B1B680222134001D1002350
S1130F8021E0174B9847134B1B6824221340042B72
S1130F9009D10020134B984702000E4B9B681B0499
S1130FA01B0C53430FE0104B0DE00B4A5023D35C52
S1130FB0DBB21A000423134001D1002303E0054BE4
S1130FC0DB6800E000231800BD4602B080BDC046C7
S1130FD0284A0000940000200008004000127A0013
S1130FE0CD0E0000A9160000006CDC0280B584B0B0
S1130FF000AF78601A4B1B6AFB607B681B781A1C75
S113100003231340DAB20D23FB1803210A40100016
S11310101A7803218A43111C021C0A431A707B6844
S11310209A780C23FB18D0011A787F210A40111CEE
S1131030021C0A431A707B685A780C23FB1801219E
S11310400A4090011A7840218A43111C021C0A4369
S11310501A70034BFA681A62C046BD4604B080BDDC
S11310600008004080B582B000AF0200FB1D1A707A
S1131070FB1D1B78082B3BD89A00214BD3181B6807
S11310809F46204B1F4A126A02210A431A62002318
S113109031E01C4B1B4A926902210A439A6129E000
S11310A0184A184B1B8A9BB202210B439BB2138232
S11310B020E0144A134B9B8A9BB202210B439BB240
S11310C0938217E0104B1B6802221A430E4B1A60DE
S11310D00E4B98470EE00B4A0A494423CB5CDBB223
S11310E002210B43D9B24423D15403E0002302E08C
S11310F0172300E000231800BD4602B080BDC0469F
S11311004C4A00000008004094000020E90E000052
S113111080B582B000AF3B0001221A7000237B60CF
S113112009E07B68DBB23A0011001800054B9847D0
S11311307B6801337B607B68242BF2D9C046BD46B3
S113114002B080BD8515000080B5A0B000AF364B5D
S1131150C222D2009A600320344B9847344B9847FC
S11311607C23FB181800334B98477C23FB18002280
S11311701A707C23FB1801229A707C23FB1800222E
S11311805A707C23FB1818002B4B984706202B4BD6
S113119098472B4B98475823FB181800294B98471E
S11311A05823FB1804221A705823FB1820225A6073
S11311B05823FB1800221A725823FB1800225A7273
S11311C05823FB18190002201F4B984702201F4B7D
S11311D0984700201E4B9847002100201D4B98473C
S11311E0002101201B4B984700210220194B9847EE
S11311F03B1D1800134B98473B1D06221A703B1DDC
S113120001225A603B1D00221A723B1D00225A72B1
S11312103B1D190000200C4B984700200B4B9847AE
S1131220C046BD4620B080BD00080040990E0000B5
S113123011110000030E0000ED0F00006510000006
S1131240FD120000D50D00002D1300005114000004
S1131250250E0000450E000080B582B000AF0200EC
S11312603960FB1D1A70FB1D1B78012B0AD0022B61
S11312700FD0002B14D10E4B0D4A91693A680A43E2
S11312809A610FE00A4B0A4AD1693A680A43DA6163
S113129008E0074B064A116A3A680A431A6201E0F9
S11312A0172300E000231800BD4602B080BDC046ED
S11312B00004004080B500AF024B9847C046BD46CD
S11312C080BDC0469D08000080B500AF024B984722
S11312D0C046BD4680BDC046F108000080B500AFE1
S11312E0054B5B78DBB25BB2002B01DA012300E033
S11312F000231800BD4680BD000C004080B500AF3F
S113130008210020074B9847074B01221A70C0465A
S1131310054B1B78DBB21A0001231340F8D1C046F9
S1131320BD4680BD59120000000C004080B586B057
S113133000AF02003960FB1D1A70FB1D1B787B6136
S1131340FB1D1B783B613B681B781B021A007B6901
S113135013437B613B685B78002B04D07B6980225C
S1131360D20213437B613B685B7A002B04D07B6918
S11313708022120313437B613B685B68012B2CD9E9
S11313803B685A683B685B68013B13401AD10023F1
S1131390FB600223BB6005E0FB680133FB60BB68B4
S11313A05B00BB603B685A68BB689A42F4D8FB6830
S11313B01B023A6913433B617B6980225203134346
S11313C07B610AE03B685B681B023A6913433B613B
S11313D07B698022920213437B613B681B7A002B5A
S11313E004D07B698022920313437B61C046134B74
S11313F09847031EFBD1124B9847124AFB1D1B78DA
S11314001370C0460D4B9847031EFBD10E4B3A692F
S11314109A60C046094B9847031EFBD10A4B0A4AFF
S113142051688022520211407A690A435A60074B7C
S11314309847C046BD4606B080BDC046DD120000D8
S1131440B5120000080C0040000C0040C912000056
S113145080B582B000AF0200FB1D1A70C0460E4B6F
S11314609847031EFBD10D4B98470D4AFB1D1B7873
S11314701370C046084B9847031EFBD1094B094A19
S11314805268802149020A435A60074B9847C04674
S1131490BD4602B080BDC046DD120000B51200009A
S11314A0040C0040000C0040C912000080B586B056
S11314B000AF0200FB1D1A70C0462A4B9847031E5A
S11314C0FBD1294B9847294AFB1D1B781370C04652
S11314D0244B9847031EFBD1254B5B68DB04DB0ED2
S11314E0DBB21800234B984703007B611F4AFB1DA6
S11314F01B7813701E4B5B68DB02DB0FDAB213231D
S1131500FB181A701C4AFB1D1B781370C046154B40
S11315109847031EFBD1164B9B681B021B0C9BB206
S1131520FB60164B98471323FB181B78002B09D13B
S1131530FB68012B06D9124BF968786998470300B8
S11315407B610AE01323FB181B78002B05D0FB6892
S113155001337A69DA4013007B617B691800BD4668
S113156006B080BDDD120000B5120000040C00407E
S1131570000C00402D0F0000080C0040C9120000B0
S1131580AD25000080B584B000AF02003960FB1DBA
S11315901A70FB1D1B78FB603B681B781B021A004A
S11315A0FB681343FB60FB1D1B781800044B984732
S11315B0044BFA6892B25A80C046BD4604B080BD5E
S11315C011160000000C004080B582B000AF02008C
S11315D0FB1D1A700A4B98470A4AFB1D1B781370AF
S11315E00949094B5B889BB28022D20113439BB209
S11315F04B80064B9847C046BD4602B080BDC046EE
S1131600B5120000020C0040000C0040C91200009A
S113161080B584B000AF0200FB1D1A701C4B9847C4
S11316201C4AFB1D1B7813701B4B5B881B051B0F8F
S1131630DBB2FB60184A538818490B405380164AA2
S1131640154B5B889BB216490B409BB25380C04636
S1131650114B5B889BB21A008023DB011340F7D146
S11316600D4AFB68DBB2191C0F230B40D9B2538817
S1131670081C0F210140080208490B40191C031CD7
S11316800B435380074B9847C046BD4604B080BD0A
S1131690B5120000020C0040000C0040FFF0FFFFF8
S11316A0FFBFFFFFC912000080B584B000AF020085
S11316B0FB1D1A700D4B98470D4AFB1D1B781370C8
S11316C00C4B5B881B051B0FDAB20F23FB181A7037
S11316D0094B98470F23FB181B781800074B9847B2
S11316E003001800BD4604B080BDC046B51200001A
S11316F0020C0040000C0040C9120000AD140000B0
S113170080B500AFC046BD4680BD000080B500AFC7
S1131710064B9847064B9847064B9847064B984705
S1131720064B9847C046BD4680BDC04649110000DF
S11317302508000001170000E9020000011700005D
S113174080B582B000AF2F4B7B602F4B3B607A6833
S11317503B689A420CD007E03B681A1D3A607A68ED
S1131760111D796012681A603A68284B9A42F3D3C3
S1131770274B3B6004E03B681A1D3A6000221A6064
S11317803A68244B9A42F6D3234B7B60234B7A6806
S1131790FF218A439A60224A90235B000221D150A0
S11317A0204AD37803218B43191C02230B43D370A3
S11317B01C4AD3780C218B43191C08230B43D37088
S11317C0194A937B30218B43191C20230B439373B9
S11317D0154A937B0C218B43191C08230B439373E9
S11317E0114A937B03218B43191C02230B439373EC
S11317F00E4A536880210B4353600D4B98470D4BA1
S11318009847FEE7684B00000000002070000020AD
S113181070000020100100200000000000ED00E036
S11318200070004100500041004800410040004168
S1131830E1490000E91C000080B500AFFEE780B577
S113184082B000AF78607B685B091800BD4602B0C7
S113185080BD000080B582B000AF78607B68DB019A
S1131860034A944663441800BD4602B080BDC04696
S11318700044004180B582B000AF78607B681800F6
S1131880054B984703001800044B984703001800C1
S1131890BD4602B080BDC0463F1800005518000088
S11318A080B582B000AF78607B681F2213400122AC
S11318B09A4013001800BD4602B080BD90B583B0B5
S11318C000AF78600A00FB1C1A70FB1C1B78002B0D
S11318D00BD07B6818000C4B984704007B681800F9
S11318E00A4B98470300A3610AE07B681800064B83
S11318F0984704007B681800044B98470300636111
S1131900C046BD4603B090BD75180000A118000084
S113191090B583B000AF78607B681800084B984797
S113192003001C6A7B681800064B98470300234099
S11319305A1E9341DBB21800BD4603B090BDC046A9
S113194075180000A118000080B582B000AF78605F
S11319500A00FB1C1A70FB1C1A787B681100180023
S1131960024B9847C046BD4602B080BDBD1800007A
S113197080B582B000AF78607B681800034B98474D
S113198003001800BD4602B080BDC0461119000016
S113199080B584B000AF78607B68A02212011A8001
S11319A07B6801229A707B680022DA707B680022CF
S11319B01A710F23FB1800221A700EE00F23FB1874
S11319C01A787B68023292000021D1500F23FB1851
S11319D01A780F23FB1801321A700F23FB181B7897
S11319E0012BEBD9C046BD4604B080BD80B582B0A2
S11319F000AF0A4B18000A4B984703007B607B68D2
S1131A00FA22920053439B0A3B60044B1800044B98
S1131A10984703001800BD4602B080BDB8000020FE
S1131A20AD0C000080B582B000AF0200FB1D1A703F
S1131A30FB1D1B78032B67D8FB1D1B78002B14D1CF
S1131A40012301211800324B984723230021180059
S1131A502F4B98470023012118002D4B9847222330
S1131A60002118002A4B984749E0FB1D1B78012BE5
S1131A7014D1012300211800254B98472323012169
S1131A801800234B9847002301211800204B984746
S1131A902223002118001E4B984730E0FB1D1B78C1
S1131AA0022B14D1012300211800194B984723233A
S1131AB001211800164B9847002300211800144BED
S1131AC09847222301211800114B984717E0FB1D6A
S1131AD01B78032B13D10123012118000C4B9847C9
S1131AE02323002118000A4B9847002300211800E3
S1131AF0074B9847222301211800054B9847054BB3
S1131B001800054B984700E0C046BD4602B080BDB2
S1131B1049190000DC050000A101000080B584B073
S1131B2000AF7860334B1A687B68D218314B1A6067
S1131B307B68002B23DD0023FB601BE02E4B1B681E
S1131B40DBB218002D4B98472B4B1B685A1C2A4BB1
S1131B501A60294B1B68032B02DD274B00221A60F5
S1131B60254B1B68002B02DA234B03221A60FB6807
S1131B700133FB60FA687B689A42DFDB25E07B680F
S1131B80002B22DA0023FB601BE01B4B1B68DBB23B
S1131B9018001A4B9847184B1B685A1E164B1A60AC
S1131BA0154B1B68032B02DD134B00221A60124BEA
S1131BB01B68002B02DA104B03221A60FB68013BFE
S1131BC0FB60FA687B689A42DFDC0023FB600AE072
S1131BD00B4BFA689200D35800211800094B984720
S1131BE0FB680133FB60FB68032BF1DDC046BD4697
S1131BF004B080BDAC000020C0000020251A000005
S1131C00704A00004919000090B585B000AF274B19
S1131C101A68274B10009847264C274A274BA047A1
S1131C2003000C0019002200254B080011009847FE
S1131C30031CFB60234BF968F8689847031C1A1CC3
S1131C40214B101C9847214C0022214BA047030034
S1131C500C001A0023001F4C00201F49A04703005A
S1131C600C0019002200164B080011009847031CB1
S1131C70BB60154BB868984703000C00180021009E
S1131C80164B98470B4C164A164BA04703000C0002
S1131C90190022000A4B080011009847031C7B60BE
S1131CA07B68181CBD4605B090BDC046AC00002042
S1131CB0ED460000813B0000057C33C71FBA393F65
S1131CC08548000041270000E14700001933000067
S1131CD000F1CE40814000000000F03F291F0000C9
S1131CE012143FC6DCA54C4090B58BB000AF6F4BCF
S1131CF098476F4B98473B1D18006E4B98473B1D08
S1131D0001229A703B1DA022D2001A803A1D6A4912
S1131D106A4B18006A4B9847684B1800694B984700
S1131D20664B00211800684B9847644B1800674BBA
S1131D3098476420664B98470220654B9847654B4B
S1131D401B7801225340DBB2002B02D0C820604B29
S1131D5098473620604B984703001A0001235340EC
S1131D60DBB2002B0ED00F205B4B9847031E09D02B
S1131D70C8205A4B9847574B00221A703220544BB4
S1131D80984719E00F20544B984703001A00012389
S1131D905340DBB2002B0FD036204F4B9847031E25
S1131DA00AD0C8235B4218004C4B9847494B002289
S1131DB01A703220464B98473620474B9847030009
S1131DC01A0001235340DBB2002B19D00F20424BE1
S1131DD0984703001A0001235340DBB2002B0FD0B5
S1131DE0FA239B0018003A4B98473D4B9847020052
S1131DF03C4B1A603C4B00221A60364B01221A708D
S1131E00344B1B78002B97D0354B98470200354B49
S1131E101B68D31A7B62354B786A9847344C354A31
S1131E20354BA04703000C0019002200334B080077
S1131E3011009847031C3B62314B386A98472C4C7D
S1131E40304A314BA04703000C00190022002B4BF1
S1131E50080011009847031CFB612C4B9847031C96
S1131E60BB612B4BB969F8699847031C1A1C294BB1
S1131E702949101C9847031C1A1C284B101C98470E
S1131E8003007B617B691800144B9847144B9847F7
S1131E900200234B1B68D31A224A934200D84BE713
S1131EA00F4B984702001E4B1A6045E70D170000C0
S1131EB0490100009119000000140040B8000020FE
S1131EC0BD0B0000490A00004D0C0000CD090000C4
S1131ED0D1010000B0000020711900001D1B00009A
S1131EE0ED190000B4000020AC0000207147000090
S1131EF0813B0000FCA9F1D24D62503F85480000AF
S1131F00E1470000E9A9C42BFF10713F091C000040
S1131F10812900004127000000004842B92C00003C
S1131F20C400002088130000F0B54746CE4680B5B3
S1131F308DB004000D0000F057F8274B06009846BA
S1131F401B780F005BB2013331D022002B0020003C
S1131F50290002F0ABFB8146002828D1200029008B
S1131F6000F018FB00221D4B00F0D6FB00281ED009
S1131F70012302931A4B1B4803934B46069407957F
S1131F800A930494059500F00BFB43461B780890D4
S1131F9009915BB2022B11D002A800F0FFFA0028CD
S1131FA00CD00A9B0193002B10D1089E099F30008E
S1131FB039000DB00CBC90469946F0BD02F00AFD04
S1131FC0212303600A9B0193002BEED002F002FD53
S1131FD00A9B01930360E8E7090000200000F03F3A
S1131FE0804A0000844A0000F0B5DB4A4B0085B00B
S1131FF007000E005B0893420CDDD84A9446634404
S1132000034300D0ACE0002900DC25E100200021DE
S113201005B0F0BDD24A934200DC9BE0002900DA0F
S11320201DE102000B000020CE4902F029F8002235
S1132030CD4B01F0A5FD04000D0000F0CBF9CB4A17
S11320400F0000900191CA4B2000290001F098FD77
S1132050C84AC94B00F050FE22002B0001F090FD4D
S1132060C64AC74B02F00CF822002B0001F088FD91
S1132070C44AC54B00F040FE22002B0001F080FD55
S1132080C24AC34B01F0FCFF22002B0001F078FD93
S1132090C04AC14B00F030FE22002B0001F070FD5D
S11320A0BE4A02900391BE4B2000290001F068FD56
S11320B0BC4ABD4B01F0E4FF22002B0001F060FD9F
S11320C0BA4ABB4B00F018FE22002B0001F058FD69
S11320D0B84AB94B01F0D4FF22002B0001F050FDA7
S11320E00022A04B00F008FE02000B0002980399A6
S11320F001F012F9009A019B01F042FD00260290C2
S1132100039132003B003000390001F039FD020038
S11321100B002000290001F0B3FF320004000D0081
S1132120009801993B0000F0E7FD02000B0020003D
S1132130290001F0F1F802000B000298039900F065
S1132140DBFD32003B0000F0D7FD02000B0000F085
S1132150D3FD5DE7994A93420BDC9948994957E7C7
S113216002000B0001F08CFF02000B0001F0D4F818
S11321704EE702000B0001F003FD04000D007B4A52
S11321807B4B01F0FDFC7B4A7B4B00F0B5FD22004C
S11321902B0001F0F5FC794A794B01F071FF220024
S11321A02B0001F0EDFC774A774B00F0A5FD2200EF
S11321B02B0001F0E5FC754A754B01F061FF22002C
S11321C02B0001F0DDFC734A734B00F095FD2200F7
S11321D02B0001F0D5FC714A00900191704B200056
S11321E0290001F0CDFC6F4A6F4B01F049FF22003A
S11321F02B0001F0C5FC6D4A6D4B00F07DFD220003
S11322002B0001F0BDFC6B4A6B4B01F039FF22003F
S11322102B0001F0B5FC0022524B00F06DFD0200D2
S11322200B000098019901F077F83A00330001F0AF
S1132230A7FC02000B006448644901F021FF02007E
S11322400B003800310001F01BFF02000B005C485A
S11322505C4901F015FFDBE659485D49D8E60022E8
S1132260404B00F049FD00223F4B01F089FC040083
S11322700D003E4A3E4B01F083FC3E4A3E4B00F0CB
S11322803BFD22002B0001F07BFC3C4A3C4B01F05F
S1132290F7FE22002B0001F073FC3A4A3A4B00F09F
S11322A02BFD22002B0001F06BFC384A384B01F067
S11322B0E7FE22002B0001F063FC364A364B00F0A7
S11322C01BFD22002B0001F05BFC0090019120001B
S11322D0290000F07FF8314A06000F00304B20003F
S11322E0290001F04DFC2F4A2F4B01F0C9FE2200BA
S11322F02B0001F045FC2D4A2D4B00F0FDFC220083
S11323002B0001F03DFC2B4A2B4B01F0B9FE2200BF
S11323102B0001F035FC0022124B00F0EDFC020012
S11323200B000098019900F0F7FF32003B0001F028
S113233027FC254A254B01F0A3FE32003B0000F0A8
S1132340DBFC02000B0000F0D7FC02000B001C4871
S11323501F4901F095FE5BE6FFFFEF3F000010C050
S1132360FFFFDF3F0000F03F0000E03F09F7FD0DF5
S1132370E13D023F88B20175E0EF493F3B8F68B50C
S11323802882A43F5544880E55C1C93F7D6FEB0395
S113239012D6D43F555555555555C53F82922EB149
S11323A0C5B8B33F59018D1B6C06E63FC88A599CDA
S11323B0E52A00404B2D8A1C273A03400000603C6C
S11323C0182D4454FB21F93F075C143326A6913C95
S11323D0FB2109406C4BF0B50A0046460D00D64679
S11323E04F461900C0B5040006002940994200D1A7
S11323F0A7E0002D00DC81E02F1500D18EE0634BB7
S113240012039C468023120B5B0367441A43FB07A9
S113241068D47B109C46E30F9B189B1880221621DE
S11324200026002564009203A818984202DC85184F
S11324301B1AB618E00F5B0001391B186400520820
S11324400029F1D1002292469046802220201206D3
S113245009E0AB4238D0E10FC9180138CB18640049
S11324605208002818D041465118AB42F1DD8F18AC
S1132470B846A946002930DB5B1B8C42AD416D4256
S11324805B1B641AE10FC918013892444D46CB18FE
S1132490640052080028E6D1234328D153465B0840
S11324A03B49721088464244F10702D5802109064F
S11324B00B4361461E000F05BD18300029001CBCEB
S11324C090469946A246F0BDA142C4D88F18B8469A
S11324D0002942DB99460023D3E7002F2FDB6F1C32
S11324E0B946C9E7E10F52008A18640091E75346E0
S11324F0013335D0534601335B08D1E76B005B08E9
S11325000343DAD00027002D32D1E20A153F6405D7
S1132510002AFAD080235B031A4224D180200023AE
S1132520400300E00B005200591C0242FAD0202064
S1132530401AFF1A2300C3408C401A435FE7A946A0
S11325409AE72B000200290001F01AFB32002B004D
S113255000F0D2FB06000D00AFE7002FBFDAB9E7A9
S1132560013600239CE70123002120205B42E0E7A1
S11325702B000200290001F083FD02000B0000F093
S1132580CBFE06000D0098E70000F07F01FCFFFF82
S11325900000E03F49004B081900704700207047D5
S11325A0002001497047C0460000F87F002243081C
S11325B08B4274D303098B425FD3030A8B4244D307
S11325C0030B8B4228D3030C8B420DD3FF22090249
S11325D012BA030C8B4202D31212090265D0030B08
S11325E08B4219D300E0090AC30B8B4201D3CB03FE
S11325F0C01A5241830B8B4201D38B03C01A524140
S1132600430B8B4201D34B03C01A5241030B8B4241
S113261001D30B03C01A5241C30A8B4201D3CB022C
S1132620C01A5241830A8B4201D38B02C01A524111
S1132630430A8B4201D34B02C01A5241030A8B4214
S113264001D30B02C01A5241CDD2C3098B4201D32C
S1132650CB01C01A524183098B4201D38B01C01AAA
S1132660524143098B4201D34B01C01A5241030921
S11326708B4201D30B01C01A5241C3088B4201D3D0
S1132680CB00C01A524183088B4201D38B00C01A7D
S1132690524143088B4201D34B00C01A5241411AA4
S11326A000D20146524110467047FFE701B50020B1
S11326B000F006F802BDC0460029F7D076E770475F
S11326C07047C0468446101C62468C46191C6346FB
S11326D000E0C0461FB501F0F1F9002801D4002143
S11326E0C8421FBD10B501F04BF94042013010BD86
S11326F010B501F0E3F9002801DB002010BD012032
S113270010BDC04610B501F0D9F9002801DD002044
S113271010BD012010BDC04610B501F06BF90028B2
S113272001DC002010BD012010BDC04610B501F031
S113273061F9002801DA002010BD012010BDC04657
S1132740F8B557464E464546DE46E0B547024600D4
S113275088467F0A360EC40F002E47D0FF2E24D0A1
S1132760FB008027FF041F43002399469A467F3EBF
S113277043465D025800DB0F6D0A000E984643D0B5
S1132780FF283BD0EB0080250022ED041D437F3859
S11327903618731C41469B464B46614013430F2B2E
S11327A064D875489B00C3589F46002F42D1082324
S11327B09946063BFF269A46DAE74146022A28D084
S11327C0032A00D1CEE0012A00D0ACE01140002061
S11327D00022CCB24002D205400AE4071043204351
S11327E03CBC90469946A246AB46F8BD002F15D195
S11327F004239946033B00269A46B9E7FF200222A8
S1132800002DC5D00322C3E7002D19D100200122D9
S1132810BEE70124FF220C400020DBE7380002F071
S1132820BBF87626431F9F4000237642361A99460A
S11328309A469DE70C239946093BFF269A4697E75B
S1132840280002F0A9F8431F9D4076235B42181A22
S113285000229DE780200024C003FF22BAE73D0048
S11328605246ABE73D0021005246A7E73B0C9C468D
S11328702A04120C2B0C1400604665463F043F0CDE
S11328807C4342435D437B43270C9B18FF18BA42A9
S113289003D980235B029C46654424043A04240C37
S11328A0121993015C1EA3413F0C920E7D191A4329
S11328B0AD0115432B0104D501235E466A081D4072
S11328C0154332007F32002A25DD6B0704D00F2325
S11328D02B40042B00D004352B0103D53200274BA9
S11328E080321D40FE2A94DC0124A801400AD2B2A1
S11328F00C406FE78020C003074207D0054205D192
S113290028434002400A4446FF2263E7384340021A
S1132910400AFF225EE70124A31A1B2B05DD0C40AD
S11329200022002056E75E46CBE72A002020DA404A
S1132930C31A9D402B005D1EAB4113435A0704D0BC
S11329400F221A40042A00D004335A0104D501246A
S113295001220C4000203DE701249B01580A0C4051
S1132960002237E780200124C00328434002400AA4
S11329700C40FF222EE7C046884A0000FFFFFFF705
S1132980F0B54F46D64646464400C0B5C20F47028E
S11329904802400A844666467B0A4800C90F9A46A4
S11329A0240E1500DB00000E8946F600FF2800D136
S11329B08FE001214F464F403900914266D0221AE0
S11329C0002A00DC9DE000283DD1002E00D18BE0E0
S11329D0511E002900D0B5E001249B1B5A0144D5A7
S11329E09B019F09380001F0D7FF053887408442D6
S11329F000DD96E0041B3A0020200134E240041B71
S1132A00A7403B005F1EBB41002413435A0704D078
S1132A100F221A40042A00D004335A0127D5013466
S1132A20FF2C00D179E001229B015B0AE4B22A4029
S1132A305B02E405580AD207204310431CBC9046AD
S1132A409946A246F0BDFF2CE0D08021C9040E4374
S1132A501B2A7BDC31002020D140821A9640721E52
S1132A6096410E439B1B5A01BAD45A07D0D1012276
S1132A70DF082A40FF2C33D1002F00D1A8E08023A7
S1132A80DB033B435B025B0AFF24D1E7211A0029E5
S1132A904CDD00282AD0FF2CB8D08020C004064387
S1132AA01B2900DDAFE030002027C840791A8E4092
S1132AB0711E8E4106439B195901D6D50134FF2C52
S1132AC000D185E001227A491A405B080B40134388
S1132AD09CE7002E00D070E76BE73B1EC5D10022B7
S1132AE07B025B0AE4B2A3E714008FE7002E4DD00B
S1132AF0481E002857D19B1901245A01B5D5022438
S1132B00E0E7002A25D1621CD2B2012A72DD9F1BA4
S1132B107A0135D5F71A0D0064E7012200232A4013
S1132B2086E73B00634A241A13406FE700296CD1FF
S1132B30611CC8B201284EDDFF2949D09B195B08EE
S1132B400C0063E7FF2A41D00A0081E701269B1BA2
S1132B5089E7002C1CD0FF2821D08024E4045242B1
S1132B6023431B2A00DD96E01C002025D440AA1A2A
S1132B7093405A1E93412343F31A04000D002DE79A
S1132B80002F00D02EE700220024A9E70C003DE727
S1132B90002B58D0D243002AEED0FF28E1D13300D5
S1132BA0FF240D0032E7FF2910D0010078E7002B45
S1132BB06ED0FF24002E00D128E780225146D20394
S1132BC0114203D06146114200D13300FF241DE7B6
S1132BD0FF2400232CE7002CE9D1002B63D0002E26
S1132BE000D113E79B195A0100D43EE7314A0C0087
S1132BF013400BE7002C1ED1002B2FD1002E4FD0F9
S1132C0033000D0002E7012655E7002C1FD1002BED
S1132C1043D0C94300290BD0FF2839D01B2944DCF9
S1132C201C002027CC40791A8B40591E8B4123432A
S1132C309B19040040E7002B1AD1002E24D18027D1
S1132C400022FF031BE7330004000D00DEE6FF282B
S1132C501ED08024E40449422343DFE7002E00D140
S1132C60D4E69F1B7A0100D437E7F31A0D00CDE6B2
S1132C70FF24002E00D1C9E680225046D203104220
S1132C80A4D060461042A1D133000D00FF24BDE65C
S1132C903300FF24BAE601236EE733000400B5E6EF
S1132CA0002700221CE73300B0E60123C0E7C0463A
S1132CB0FFFFFF7DFFFFFFFB41024300C20F490AF4
S1132CC01B0E00207E2B0DDD9D2B0CDC80200004D0
S1132CD00143952B0ADC9620C31AD9404842002AA6
S1132CE000D108007047034BD018FBE7963B99408E
S1132CF0F4E7C046FFFFFF7FF8B54546DE4657467A
S1132D004E460C03E0B54E00C90F88460D00610A1B
S1132D10440F0C43C70019035800DB0F9B464B0AB2
S1132D20510F0B43760D400D1900D200D84500D148
S1132D30AEE0351A002D00DCF6E000280FD1134375
S1132D4000D1DBE06B1E002B00D037E1BA1A9742AA
S1132D50BF41641A7F42E41B0126170024E0C64BDE
S1132D609E424DD080231B041943382D00DD07E11A
S1132D701F2D00DD38E12020431B9A460B005046EE
S1132D808340994613004846EB40184303005046DD
S1132D908240501E8241E9401A43BA1A611A97428E
S1132DA0A441170064420C1B230262D56402650A25
S1132DB0002D00D1DFE0280001F0EEFD0300083B08
S1132DC01F2B00DDD2E020223C00D21A9D40D440CB
S1132DD09F4025439E4200DDC4E09E1B731C1F2BB5
S1132DE000DDF1E0202238002900D21AD8409140B9
S1132DF097402C000143781E8741DC4000260F4396
S1132E007B0709D00F233B40042B05D03B1DBB425D
S1132E10BF417F42E4191F0023022CD5964B013693
S1132E209E4200D19AE04546944BFF081C4060073F
S1132E30760564020743240B760D00212403230B3B
S1132E400C0D8F4A24051C431440330523435B00B7
S1132E50ED075B082B43380019003CBC90469946AB
S1132E60A246AB46F8BD6446044300D111E2040017
S1132E7067467B07C6D145466007FF080743E40859
S1132E807D4B9E4230D024037605240B760DD4E787
S1132E90331A9A46002B78DD002831D076488642D2
S1132EA0AED08020000401435346382B00DCE9E017
S1132EB00A43511E8A410021D219BA42BF4109195D
S1132EC07C4217000C192302D3D56B4B01369E426A
S1132ED000D13AE10120694B1C407B0807401F43A5
S1132EE0E007074364088BE723003B4300D1CBE1B1
S1132EF08022120314432403240B9EE72E007FE751
S1132F000800104300D1B4E0581E002800D0DEE0D1
S1132F10BA18BA429B4164185B42E41817000126B0
S1132F202302A6D50226D5E7002D6ED1701C4005DC
S1132F30400D012800DCF9E0B81A8446874280413C
S1132F40E51A40422D1A280200D489E0D71BBA4260
S1132F5092411C1B5242A51AD84629E74546002433
S1132F6000276AE7454CF61A2C4049E73D0028380B
S1132F70854000272EE7380001F00EFD20301DE7C4
S1132F800A43511E8A41002107E7002B00D0F3E0D9
S1132F90701C43055B0D012B00DCADE0364B984201
S1132FA000D1D1E0BA18BA42BF4164187F42E41993
S1132FB0E707520817436408060021E72E488542B4
S1132FC000D193E01D00D0E629001F3EF140202BE4
S1132FD000D18DE04022D31A9D402F437D1EAF4186
S1132FE000240F43002644E72B000800203BD84070
S1132FF00300202D00D17DE04020451BA9400A4359
S1133000511E8A4100211A43C7E6002E50D01A4EA1
S1133010B04257D080266B429946360434434B461F
S1133020382B00DDD6E01F2B00DD35E12026F51A14
S11330302600AE40B2463E00DE40AC463500564661
S11330402E436546AF407D1EAF41DC403743D71B5E
S1133050BA4292410C1B5242A41A0600D846A3E677
S1133060644667462C4300D0A2E6002500260027CC
S113307006E71E00C4E6C046FF070000FFFF7FFF0F
S1133080FFFF0F801F2B63DC2020C31A0800984029
S11330909C46834653461000D840030058461843C4
S11330A063469A40531E9A4153460243D94003E76C
S11330B026003E4306D0EB439946002BC7D0944EDE
S11330C0B042ACD10C0017000600D84698E6904BED
S11330D09A450BD08246E7E6002800D09EE018000F
S11330E0104300D1E9E01C001700D846884E87E65B
S11330F0002572E7002182E723003B43002E00D025
S1133100ABE0002B00D1E7E00B00134300D177E6DE
S1133110BA18BA42BF4164187F42E419230200D4AA
S1133120F2E07C4B17001C40060069E6200038439F
S1133130002ED1D100285BD11C00144300D1A8E09B
S11331401C001700D8465BE606000024002797E61B
S113315050460B002038C34099465346202B00D1DB
S113316095E0402350461B1A99400A43511E8A4158
S11331704B4600211A439FE6002E30D126003E43E1
S113318067D0DB439A46002B1CD0614EB04260D01E
S11331905346382B00DD96E01F2B00DD9FE02026F0
S11331A0F31A26009E409C46B34653463E00DE403A
S11331B033005E461E4363469F407B1E9F41534639
S11331C0DC403743BF189742924164185242A41816
S11331D0060078E627437C1EA741002437E74C4EBF
S11331E0B04236D080265B4236049A463443CFE759
S11331F01800104300D103E6B81A84466745AD4170
S1133200E01A6D42401B050200D42CE6D71BBA42DB
S113321092411C1B5242A41AD846F1E518001043EF
S113322000D163E7F808670707438020E408000338
S1133230044208D0DD08054205D1D20859071143DC
S11332400F002C00D8467B0FE4001C43FF00304ED7
S1133250D6E50C0017000600D2E5002B38D00B0091
S1133260134300D142E7F808670707438020E408C6
S113327000030442E7D0CB080342E4D1D208490753
S113328011430F001C00DEE700270024D5E50021D0
S11332906BE700250027F3E54E462500203EF54068
S11332A04B462E00202B2DD04025ED1AAC40274351
S11332B07C1EA74100243743C9E68024002524034B
S11332C0134E0027DCE527437C1EA741002479E741
S11332D00C0017000E4E93E50C00170090E55646BF
S11332E02300203EF34099465346202B0ED0402322
S11332F056469B1B9C4027437C1EA7414B460024FB
S11333001F435FE70024D2E71700B2E50024F2E789
S1133310FF070000FFFF7FFFF0B557464546DE4636
S11333204E46E0B54C000E0387B0834692461D001E
S11333308046360B640DCF0F002C4FD06F4B9C4250
S113334035D08023420F1B04F600134333439946C0
S1133350C30098466A4B00269C46002364440393AA
S11333602B031B0B9B466B00ED0F50465B0D019529
S11333705ED0624A934253D05A46D1008022400F15
S1133380120402430A4393465246D1005C4A9446CF
S1133390002263443800684084460290E41A1643CD
S11333A00F2E00D9B4E0574BB6009B599F4603003B
S11333B0334399466CD1002398460233082603937D
S11333C0CEE7CB464146039A0197022A65D1019B79
S11333D04A4C9C460023002298466BE0030033438A
S11333E099464ED0002E00D1BCE1300001F0D4FA51
S11333F003000B3B1C2B00DDACE11D22D31A5A4603
S11334000100DA4008398E401300334399465B4685
S11334108B40984600233C4C0026241A03939FE7D4
S113342051465A46114329D1002293460232B1E74C
S1133430594601431ED05B46002B00D19EE15846FD
S113344001F0AAFA03000B3B1C2B00DD8FE1020004
S11334505946083A91408B461D21CB1A5146D94012
S11334600B0059460B4351469B469140264B002284
S11334701B1A8FE7002301229B468BE75146032248
S113348088E700239846013304260024039367E762
S11334900323B14603930C2662E7032A00D15CE2BE
S11334A0019B012A00D0E4E113409C460023002440
S11334B00022984600211203130B0A0D12051A4329
S11334C02305124C40462240134362465B00D20758
S11334D05B081343190007B03CBC90469946A246CA
S11334E0AB46F0BD002380229C4612039846034C51
S11334F0E0E70023014C00229846DBE7FF070000C9
S113350001FCFFFFC84A00000DFCFFFFFFFF0F8016
S1133510D94500D939E100D134E1002346464D466E
S11335209A46013C5B460A0E1B021A430B02170C17
S1133530039313041B0C3900280090460193FFF7F2
S113354035F80200019B83465A432800390091460E
S1133550FFF7B2F8350C09040D43A9450DD95B46B4
S11335604544013BA84500D93AE1A94500D837E1D3
S113357002235B429C464544E3444B46EB1A390024
S113358018000493FFF712F8019B05004343390028
S113359004989946FFF790F8330409041B0C0B4375
S11335A0994509D943446A1E984500D91AE19945B9
S11335B000D817E1023D43444A469B1A5A46120476
S11335C02A4303999346100C0A0C914609045A465F
S11335D0090C4E460D001204120C4543059151434B
S11335E07243704352190E0CB218954203D98025C8
S11335F06D02AC466044150C09041204090C281829
S11336005218834200D2CEE000D1C8E01D1A5346BE
S11336109E1AB24592415242AB1A9A46984500D13D
S113362017E139001800FEF7C1FF019B0500434371
S1133630390050460493FFF73FF804980B04310C0B
S11336401943884209D941446B1E884500D907E1D2
S1133650884200D804E1023D4144049BCB1A18007F
S113366039000493FEF7A2FF019B824643433900CD
S113367004980193FFF720F801980B043104090C16
S1133680194388420DD953464144013B884500D92A
S1133690E8E0884200D8E5E002235B429C464144CE
S11336A0E244019B2D04CE1A51462943059D4F4601
S11336B02A000B04080C1B0C5A4345437B437843F4
S11336C05B19170CFB189D4203D980256D02AC468B
S11336D060441D0C12041B04120C28189B1886420B
S11336E000D293E000D18EE001231943A04BE318EC
S11336F0002B00DC99E04A0700D09EE05A46D20134
S113370006D55A469B4B1A4080239346DB00E318A8
S1133710994A934268DD0123029A984C1A40002387
S1133720944698460022C5E680224B461203134273
S11337300AD05B46134206D11A431203120BAC465D
S113374088468E4CB6E64B461A431203120BBC460F
S11337508A4CAFE603005A46283B9A400023914620
S1133760984657E6584601F017F9203040E6030022
S11337705246283B9A400021934677E601F00CF923
S113378020305FE6884500D2C7E64B46DE075D0879
S113379043465B081E434346DB079A46C2E60025C0
S11337A0924500D333E7039E5946B446E244B245FA
S11337B0AD416D424544EB180139984507D2984212
S11337C000D97FE000D1BCE01D1A8B461FE7984565
S11337D0FAD1039D5545F2D943468B461D1A16E787
S11337E09B46CAE61500E7E65A46C90852070A434B
S11337F05B0590465C0D5A4601230299520219401A
S1133800120B8C4656E6002B00D16FE746444A1E45
S1133810B04529D91100864200D065E7039A934246
S113382000D061E762E7012149420120C21A382A27
S113383021DD029B03409C4638E60F220A40042AFD
S113384000D15BE70A00111D914292415242934418
S113385054E7474BE318002BE5DD01225242F2E71F
S11338601D00FAE69A461CE7B04239D86ED0110022
S11338703AE702933AE71F2A3CDC20239B1A0C0008
S11338805846994098404B1E99415B46D440D340DA
S1133890204308431A00430709D00F230340042B95
S11338A005D00100081D88429B415B42D2181302D7
S11338B03AD50123029A01241A40002394469846DB
S11338C00022F7E5022149428C46039DE344AC46BD
S11338D0E244AA45AD416D424544ED182D1A96E6E1
S11338E08A1E03994D008D4289414942414476180C
S11338F003958FE71F204042C31A5846D84003005F
S1133900202A28D040205D46821A954029434A1E29
S113391091411943072300220B4009D00F230022B1
S11339200B400800042BBDD1010053075202120BB7
S1133930C9081943012388460299002419408C467A
S1133940B8E55245BED88B46002560E6039D9D42EE
S1133950C6D3110062E70025D8E780225B46120334
S11339601A43019B1203120B9C468846034CA1E5A3
S1133970FF030000FFFFFFFEFE070000FF0700003B
S1133980F0B54F464646D6465C00C0B51F03DB0F74
S11339909A46174B0E034D0084468046360B6D0D38
S11339A0C90F91463F0B640D01209D4208D09C42F3
S11339B001D0A5420BD01CBC90469946A246F0BD4E
S11339C063463343F7D1AC42F5D13A43F3D10120F6
S11339D0BE42F0D1C845EED1514507D0002DEAD101
S11339E063461E433000461EB041E4E70020E2E790
S11339F0FF070000F0B54546DE4657464E46E0B5A3
S1133A001F033D0B2C4F0E034C00AB465D00844658
S1133A10360B640DC90F90466D0DDB0FBC422AD0E6
S1133A20254FBD422DD0002C0FD1304307008146D5
S1133A3078427841C0B2002D17D15F463A4314D181
S1133A404B460020002B0AD006E0002D02D1584638
S1133A50024301D0994218D04842012108433CBC9A
S1133A6090469946A246AB46F0BD0028F2D001200C
S1133A70013B1843F3E737000743D1D0022040420B
S1133A80EDE75F461743CED0F8E7AC42E4DC03DA57
S1133A90481E01210843E2E75E45DDD806D0002038
S1133AA05E45DCD20123481E1843D8E7C445D3D869
S1133AB00020C445F6D3D2E7FF070000F0B54E4618
S1133AC04546DE4657465C00E0B51F03DB0F9946CA
S1133AD02A4B0E034D00C90F8446360B6D0D8B46E1
S1133AE090463F0B640D9D4220D0244B9C4222D033
S1133AF0002D12D1304343424341DBB2002C1FD08E
S1133B00002B0CD04B460120013B034318003CBC66
S1133B1090469946A246AB46F0BD002C16D0CB4544
S1133B2017D05B46594201230B43EFE731000223D0
S1133B300143EBD1D9E7390002231143E6D1D7E79A
S1133B403A43DDD100230028E0D0EAE73A43E6D146
S1133B50E7E7A542E5DC05DBBE42E2D807D0002357
S1133B60BE42D3D25946012301390B43CEE7C445A3
S1133B70D7D80023C445F5D3C8E7C046FF070000E3
S1133B80F0B557464546DE464E46E0B50C0398462A
S1133B904E00230B87B0070092469B46760DCD0F4F
S1133BA0002E6BD06D4B9E4235D080245B46420F75
S1133BB02404DB0014431C43C3009946684BA3460A
S1133BC09C46002300276644029343461C035A0084
S1133BD0DB0F5046240B520D984600D176E05F4B24
S1133BE09A426DD08023410F1B040B435C49E400CF
S1133BF08C461C43C300002062444146B618694009
S1133C00721C0191944607430F2F00D9B0E0554A26
S1133C10BF00D25997465B460343994600D087E0DC
S1133C2000239B46023308270293CEE742460192C3
S1133C30022867D0032800D10EE2012800D062E1F7
S1133C40002300240022994601990140CDB20021AD
S1133C5012030B0D120B1B051343434A2405134097
S1133C601C436400ED0764082C434846210007B058
S1133C703CBC90469946A246AB46F0BD03439946E8
S1133C804FD05B46002B00D189E1584600F084FEFA
S1133C9003000B3B1C2B00DD7AE11D22D31A3A00F2
S1133CA001005C46DA4008398C4013008F402343FE
S1133CB09B46B94600232D4E0027361A029384E70B
S1133CC0534623432AD10024022096E75346234334
S1133CD020D0002C00D157E1200000F05DFE03004D
S1133CE00B3B1C2B00DD49E11D21CB1A5146020080
S1133CF0D9405346083A944093400C431B4A121A45
S1133D0000207AE70125019B144C1D40002300226A
S1133D1099469CE70024002201206EE753460320C5
S1133D206BE700239B4601330427002602934CE7EC
S1133D30032381460C27029347E7802200230025B2
S1133D4012039946054C82E75C464B4602986FE79E
S1133D505C464B46019502986AE7C046FF0700009F
S1133D6001FCFFFF084B0000FFFF0F800DFCFFFF6D
S1133D704A464946170C1A0C1B041B0C080419006C
S1133D80000C41431500884619007D43794303958F
S1133D9089462900150045434D44029545462D0C9E
S1133DA0AA46029D5544A94506D98A46802149025E
S1133DB08946CA4451460391290C04914146090499
S1133DC02D04090C88462900250C24044144240CA4
S1133DD00591210041438846210079438A4668437E
S1133DE0414650448146080C48446F43824503D9F8
S1133DF08021490289464F44010C894639004944CF
S1133E00029141460F0404993F0C88460004C019EE
S1133E1080444146049159460F0C0904090C884614
S1133E2059438A4639005143894641464A435146DB
S1133E30090C8B467B43D2185A44934203D98023FE
S1133E405B029B46D94451460904090C8A46414603
S1133E5061437C43130C12044B445244A1468A46EA
S1133E603C0041466C434D4351464D440F0C7D1973
S1133E70A94503D98021490288464444049F0399F3
S1133E80B84641448B468345804141428846514669
S1133E9008042F04000C3F1858460299101889464C
S1133EA0904292414F44BA46524299469346C24484
S1133EB0D144CB448F42BF41C245894199459B417E
S1133EC0934592417F4249422D0C52420F435B423B
S1133ED013437F19FF185B463C19DB0D059A6402F6
S1133EE01C43430213435D1EAB415A46C00D0343BA
S1133EF052021343E20156D501205A0803401343EA
S1133F00E207134364085A48604400284DDD5A0709
S1133F1009D00F221A40042A05D01A1D9A429B4147
S1133F205B42E4181300E20104D58020514AC0002A
S1133F3014406044504A904200DDE3E60125DB086A
S1133F4062071A436402019B9146220B4405640DE7
S1133F501D407CE6802259461203114208D01442C7
S1133F6006D122431203120B45469946434C6EE692
S1133F705B461A431203120B404C68E60300544696
S1133F80283B9C400023B9E600F006FD2030A6E65D
S1133F900300283B9F400023BB4699468AE600F075
S1133FA0FBFC203074E6B446ADE701252A1A382A12
S1133FB006DD019B00241D4000230022994646E6AD
S1133FC01F2A21DC20252000AD1A1E00AB40A8408A
S1133FD0D6405D1EAB4130431843D440430709D05B
S1133FE00F230340042B05D00300181D98429B4166
S1133FF05B42E418230221D50125019B01241D40C5
S113400000230022994622E61F2521006D42281A2A
S1134010C1400800202A1DD05F35AA1A94402343CA
S11340205C1EA341072503431D400022002D09D037
S11340300F2200241A401800042AD6D10300650771
S11340406402220BDB082B4301259946019B0024C3
S11340501D40FCE50024E2E78022012512032243EF
S113406001991203120B0D409946044CEFE5C0462A
S1134070FF030000FFFFFFFEFE070000FF07000034
S1134080F0B54646D6464F460C03C0B5CD0F4E009C
S1134090610A440F0C43C1005800400D84468A460F
S11340A00F001903500F490A0143C648760DA8466C
S11340B0DB0FD200844500D1D8E001204340AB425D
S11340C000D1A6E06046351A002D00DC05E1002889
S11340D010D10B00134300D1D7E06B1E002B00D08E
S11340E04BE153469F1ABA458041641A4042241A50
S11340F001261EE0B34B9E4248D080231B04194383
S1134100382D00DD19E11F2D00DD4CE120230F00C7
S11341105B1B10009A409F40E840531E9A41E940BF
S1134120074317435346DF1B611ABA45A44164424F
S11341300C1B230200D4C5E06402650A002D00D1E3
S1134140F6E0280000F028FC0300083B1F2B00DDEC
S1134150E9E020223C00D21A9D40D4409F402543F0
S11341609E4200DDDBE09E1B731C1F2B00DD0AE179
S113417020223800D21A290097402C009140D840C0
S11341807A1E9741DC40002601430F437B0709D088
S11341900F233B40042B05D03B1DBB42BF417F4254
S11341A0E4191F00230225D5864B01369E4200D117
S11341B0AFE0854B01251C4043466207FF086402BB
S11341C076051743240B760D1D4000212403230B91
S11341D00C0D7E4A24051C431440330523435B0025
S11341E0ED075B082B43380019001CBC9046994628
S11341F0A246F0BD012543466207FF081743E408C1
S11342001D40704B9E4236D024037605240B760D58
S1134210DBE76346F31A002B00DC94E060460028D9
S113422035D068488642B1D080273F043943382BC3
S113423000DCFDE00A43170000217A1E9741574431
S113424057458041091944420C1923023AD55D4B64
S113425001369E4200D14BE101225B4B1C407B089E
S113426017401F43E207174364088FE70800104311
S113427000D024E721E723003B4300D1B9E18022A9
S1134280120314432403240B9FE72E007EE7080047
S1134290104300D1CAE0581E8446002800D0E7E04D
S11342A052445245804164184042241817000126A4
S11342B0230207D50226CFE764462C4300D1B3E19D
S11342C02C0067467B0700D062E76307FF081F43A3
S11342D001254346E4081D4093E7002D78D1751C61
S11342E06D056D0D012D00DCF2E05046801A82450B
S11342F0BF41651A7F42ED1B8446280200D48CE03E
S11343005046171ABA4292410C1B5542651B9846F7
S113431014E70125434600241D40002755E72A4C95
S1134320F61A2C4032E73D0028388540002717E76D
S1134330380000F031FB203006E70A431700002163
S11343407A1E9741EEE6002B00D0E5E0731C9C46F4
S11343505B055B0D012B00DC9FE01A4B9C4500D1F3
S1134360C5E0524452458041641840422418E7078E
S1134370520817436408664608E71248854200D18C
S113438085E01D00BCE629001F3EF140202B00D132
S11343907FE04022D31A9D402F437D1EAF4100246D
S11343A00F4300268EE72B000F00203BDF40202D1B
S11343B071D040235D1BA9400A43511E8A4100214C
S11343C01743AFE6FF070000FFFF7FFFFFFF0F80EB
S11343D0002E3ED0B34EB44545D0802636046D42FF
S11343E03443382D00DDA8E01F2D00DD1FE1202619
S11343F027005046761BB740E84007435046B0407C
S1134400461EB041EC403843171ABA4292410C1B85
S11344105242A41A664698468BE6644667462C4385
S113442000D08BE6002500260027EAE61E00ADE654
S11344301F2B60DC2027F81A0F00844687401000E9
S1134440D840074360468240501E8241D9401743FA
S1134450F5E626005046064305D0ED43002DD3D0A3
S1134460904EB445BDD10C001700664698468DE6C3
S11344708C4883420BD06346D9E6002D00D096E0E9
S11344800800104300D1E2E00C0017009846854E66
S11344907CE6002580E700218EE723005046034395
S11344A0002E00D0A8E0002B00D1DEE00B00134367
S11344B000D16BE6524452458041641840422418AE
S11344C01700230200D4FDE6774B66461C405DE6E8
S11344D0250050460543002ECFD1002D4FD10C00AE
S11344E0144300D1A0E00C00170098464EE666463F
S11344F00024002785E61F000800203FF84007003D
S1134500202B00D18EE04020C31A99400A43511E4B
S11345108A410021174392E6002E14D1260050460A
S1134520064362D0DB43002B5CD18718974292414B
S113453064185242A418664687E650462043441E37
S1134540A041002460E7574EB4454ED0802636047F
S11345505B423443382B00DD7FE01F2B00DD8BE012
S1134560202627005046F61AB740D8400743504645
S1134570B040461EB0410743DC40BF18D6E70D00EB
S1134580154300D102E65046801A8245BF41651AA0
S11345907F42ED1B8446280200D48DE65046171A4C
S11345A0BA4292410C1B5242A41A9846EEE50D0001
S11345B0154300D16BE750466707C00807438020C6
S11345C0E4080003044207D0CD08054204D12C00BE
S11345D09846D70849070F437B0FE4001C43FF00AC
S11345E0304ED3E52F4EB445B4D10C0017006646C7
S11345F0CCE500270024E8E5002B39D00B00134359
S113460000D144E7C008670707438020E40800039B
S11346100442E1D0CB080342DED1D70849070F4357
S11346201C00D9E7002171E700250027E9E52E00E9
S11346302700203EF740202D2FD04026751BAC408C
S113464050462043441EA04100243843DCE6802425
S113465000252403134E0027D3E5504620430700CA
S1134660781E87410024BF1860E70C0017008DE511
S11346700C0017000B4E89E51E002700203EF74072
S1134680202B0CD04026F31A9C4050462043441E55
S1134690A04107430024BF1848E70024D0E70024C2
S11346A0F3E7C046FF070000FFFF7FFF70B50E4E23
S11346B00D031C0349005B002D0B490D240B5B0DFE
S11346C0B14204D0084900208B4208D070BD054394
S11346D00120002DFAD1044900208B42F6D1144365
S11346E02000441EA041F1E7FF07000070B5002838
S11346F030D0C317C4185C40C50F200000F04CF93B
S1134700174B184A1B1AD21A1F2A18DD164AD21A36
S11347109440002224035B05240B5B0D0021100050
S113472024030A0D240B12052243104C1B052240BE
S113473013435B00ED075B082B43190070BD210098
S113474091400A000B21081AC4405B052403240B82
S11347505B0DE3E70025002300240022DEE7C046CA
S11347601E0400003304000013040000FFFF0F8048
S113477010B5041E28D000F00FF9154B154A1B1A6A
S1134780D21A1F2A15DD144AD21A94400022240397
S11347905B05240B5B0D0021100024030A0D240B80
S11347A0120522430D4C1B05224013435B0059089C
S11347B010BD210091400A000B21081AC4405B057A
S11347C02403240B5B0DE6E7002300240022E2E728
S11347D01E0400003304000013040000FFFF0F80D8
S11347E04100090E4B1C70B5DBB24602750AC40FBA
S11347F0012B14DDE0239B006D07360BCB18002141
S11348000A0D280012051C4D32435B052A405B0843
S113481013435B00E4075B082343190070BD0029C0
S113482014D1002D1ED0280000F0B6F80A281CDC94
S11348300B232A001B1ADA40030015339D400F4B4B
S113484012031B1A5B05160B5B0DD8E7002D06D06F
S1134850320B802636036D071643094BCFE7084B0E
S11348600026CCE700230026C9E703002A000B3BFF
S11348709A400025E3E7C046FFFF0F80890300004C
S1134880FF070000F0B54C00640D0B03621C450FDC
S11348905B0A52052B43C90FC500520D012A28DDBE
S11348A03A4AA618FE2E1BDC002E3EDD80010200D3
S11348B0501E82416D0F2A43DB0013435A0704D074
S11348C00F221A40042A00D004338022D2041A4052
S11348D05AD00136FF2E03D09B015B0AF4B201E0EB
S11348E0FF2400235802E405400AC9072043084373
S11348F0F0BD002C07D01D43F2D08020DB008004E3
S11349000343FF26DAE72B4303D00523DB08FF2C00
S113491003D05B025B0AE4B2E4E7002B32D08020D0
S1134920C00303435B025B0ADCE73200173214DB8B
S113493080221E2712041343BF1B1F2F0FDC144AAF
S1134940944664442A00A5402E00A340751EAE413F
S1134950FA40334313430026B0E70024D5E702228C
S11349605242961B1A00F240202F09D0094884466F
S11349706444A3402B435D1EAB41002613439DE7D3
S11349800023F7E70023ADE73400BFE780FCFFFF17
S113499082FCFFFFA2FCFFFF1C2101231B049842A1
S11349A001D3000C10391B0A984201D3000A0839BC
S11349B01B09984201D30009043902A2105C401873
S11349C07047C04604030202010101010000000017
S11349D000000000014B18687047C0460C0000201E
S11349E070B500260C4D0D4C641BA410A64209D1D1
S11349F0002600F0A9F80A4D0A4C641BA410A64234
S1134A0005D170BDB300EB5898470136EEE7B3000B
S1134A10EB5898470136F2E7544B0000544B000022
S1134A20544B0000584B00004A0F0000C40F000014
S1134A30C40F0000680F0000620F00006E0F00003A
S1134A40500F0000740F0000AA0F0000A010000017
S1134A50F0100000F0100000EC10000092100000B4
S1134A60B210000082100000C4100000D610000034
S1134A7001000000230000000000000022000000EC
S1134A8061636F73000000006C280000BC27000005
S1134A90BC270000BA2700005E2800005E28000042
S1134AA054280000BA2700005E28000054280000A3
S1134AB05E280000BA270000642800006428000073
S1134AC064280000F428000010350000F2340000CF
S1134AD0AC340000CA330000AC340000E4340000FD
S1134AE0AC340000CA330000F2340000F234000099
S1134AF0E4340000CA330000C2330000C2330000B3
S1134B00C233000028370000703D0000303C000034
S1134B10303C00002C3C0000483D0000483D0000B3
S1134B203A3D00002C3C0000483D00003A3D0000A6
S1134B30483D00002C3C0000503D0000503D00006A
S1134B40503D0000543F0000F8B5C046F8BC08BC16
S1134B509E467047DD000000F8B5C046F8BC08BCAE
S10B4B609E467047B5000000F9
S1134B68401F0000080000000101000010000020A0
S1134B780000000000000000000000000000000029
S1134B880000000000000000000000000000000019
S1134B980000000000000000000000000000000009
S1134BA800000000000000000000000000000000F9
S1134BB800000000000000000000000000000000E9
S1134BC800000000000000000000000000000000D9
S9031741A4
