S0140000737461725F747261636B65722E737265630B
S113000010210020B90A0000B50A0000B50A00005A
S113001000000000000000000000000000000000DC
S1130020000000000000000000000000B50A00000D
S11300300000000000000000B50A0000B50A00003E
S1130040B50A0000B50A0000B50A0000B50A0000B0
S113005031020000B50A0000B50A0000B50A00002C
S1130060B50A0000B50A0000B50A0000B50A000090
S1130070B50A0000B50A0000B50A0000B50A000080
S1130080B50A0000B50A0000B50A0000B50A000070
S1130090B50A00000000000000000000B50A0000DE
S11300A0B50A0000B50A0000B50A0000B50A000050
S11300B00000000010B5064C2378002B07D1054B37
S11300C0002B02D0044800E000BF0123237010BDC0
S11300D07000002000000000383B0000084B10B501
S11300E0002B03D00749084800E000BF0748036815
S11300F0002B00D110BD064B002BFBD09847F9E72D
S11301000000000074000020383B0000383B000071
S11301100000000070B50020084B98470500084C0B
S1130120FA218900A047074B186007492800A04717
S1130130064B18600522064B1A6070BD1D090000AD
S11301407D1500000000002040420F000400002044
S113015010E000E030B5084B1C68084A00258021F7
S11301604902013807D3002CFBD054609560136812
S11301700B42FCD0F5E730BD0400002010E000E0A5
S113018030B5084B1C68084A002580214902013813
S113019007D3002CFBD05460956013680B42FCD04D
S11301A0F5E730BD0000002010E000E0044A1378B9
S11301B002210B43137053785BB2002BFBDB7047B7
S11301C00018004000B583B0124A936940210B43E4
S11301D0936101A900230B7005200F4B984705205C
S11301E00E4B98470E4A137801210B431370537832
S11301F05BB2002BFBDB0B4B19004031002204C324
S11302009942FCD11022084B1A60084B984703B05E
S113021000BDC04600040040350A0000A9090000E2
S113022000180040C400002000E100E0AD0100001F
S113023070B50022104B1A70002310491F25104E70
S11302400D4C0AE00D4908E023780133DBB223703A
S11302500F2B10D800211F2BF4D92800184001229D
S1130260824008691042EFD00A619B009B59002B21
S1130270EAD09847E8E770BD040100200018004068
S1130280C400002030B51F4B0220986041241A5D41
S113029002210A43D2B21A55586101389860013CD0
S11302A01A5D0A43D2B21A555861174A383C946011
S11302B06325505D0843C0B250555461043C9460BA
S11302C0013D505D0843C0B2505554618024E4039D
S11302D054601435505D0843C0B250550B489062C9
S11302E00B48906294618020000258604F241A5D8C
S11302F01143C9B21955074A9A62074A9A6298612A
S113030030BDC04600440041804400410000065016
S1130310400006D000800650000006D00C4B1B683D
S1130320002B06D1EFF31083002B07D00022094BDA
S11303301A70074A136801331360704772B6BFF32B
S11303405F8F0022044B1A700132024B1A70F0E7DF
S11303508C0000209000002008000020084B1A6840
S1130360013A1A601B68002B09D1064B1B78002B3D
S113037005D00122044B1A70BFF35F8F62B6704739
S11303808C00002090000020080000200368987A68
S1130390C009704770B504000668054D2000A847E1
S11303A00028FBD1338802221343338070BDC0463A
S11303B08D03000070B504000668064D2000A847B0
S11303C00028FBD1C123B3713372338802229343D3
S11303D0338070BD8D03000070B504000668064BC1
S11303E09847064D2000A8470028FBD133880122F6
S11303F01343338070BDC046B50300008D03000075
S1130400F8B504000E0007680A4D2000A84700282C
S1130410FBD12379002B03D0012B09D13E61F8BD18
S1130420054B17209E42FAD8B6B23E820020F6E76A
S11304301720F4E78D030000FFFF000070B50400EF
S113044006684379002B0ED10F4B73800F4D2000AB
S1130450A8470028FBD12379002B12D00020012BC0
S113046000D1306970BD73885B04F4D47388C022F2
S1130470120213437380054D2000A8470028FBD1C6
S1130480E9E7308A80B2EDE70080FFFF8D030000CA
S1130490F0B583B00400019115000668114F2000E7
S11304A0B8470028FBD12379002B0AD0012B16D1A1
S11304B01730012D14D80635AD00019BAB51002037
S11304C00EE01720022D0BD8074B019A9A4207D849
S11304D06B469B880C356D00AB53002000E01A205E
S11304E003B0F0BD8D030000FFFF0000F0B583B042
S11304F00400160001602E4A936920210B43936186
S113050001A902230B7004202A4B984704202A4B8C
S113051098472000294B9847B37823713379637146
S1130520274B1C60276833883B80B378002B21D08D
S11305301720012B1CD13B889BB23B80F378002B06
S113054003D03B88802213433B801E4D2000A847E4
S11305500028FBD10022B16820001B4B9847337957
S11305600020002B04D07B888022D20113437B809F
S113057003B0F0BD3B88042213433B80F37817207B
S1130580002BF5D10F4D2000A8470028FBD10022F5
S1130590B16820000C4B98470A4D2000A84700285A
S11305A0FBD10122F1682000074B9847D7E7C046EA
S11305B000040040350A0000A9090000D903000026
S11305C0080100208D0300009104000010B50828E4
S11305D003D880001C4B1B589F46002032E01B4B65
S11305E018692FE01A4B1B6A9B059B0F1948D840CA
S11305F028E0164B586925E0144B1B6800209B0724
S113060020D513491022CB681A42FCD00F4B1A682C
S113061024231340042B01D00F4813E000200F4B78
S113062098470A4B9B681B041B0C58430AE0502351
S1130630074AD35C00205B0704D5044BD86801E06B
S11306408020000210BDC046F8390000940000204C
S11306500008004000127A00006CDC02510A00001D
S113066070B50C490B6A04788578407801221040F3
S113067080014026B34303432A40D20180208343B0
S113068013430322224012020348034013430B6224
S113069070BDC04600080040FFFCFFFF082803D8D7
S11306A08000254B1B589F46172044E0234A136AB9
S11306B002210B43136200203DE0204A936902218A
S11306C00B439361002036E01C4A138A02210B433A
S11306D0138200202FE0194A938A02210B4393824C
S11306E0002028E016490B68022213430B60134BC9
S11306F09A8419000E32CB681A42FCD0104A9168D1
S11307000E4BD96252689A6200229A841900103200
S1130710CB681A42FCD00A4B1B689BB2074A9384ED
S1130720002008E0054944228B5C022003438B54DB
S1130730002000E0002070471C3A00000008004040
S113074094000020F0B585B0C222D200224B9A60FA
S1130750224A53681E218B4318390B4353600123EB
S11307606A46137000241E4DE0B26946A84701345E
S1130770252CF9D103A80024447001278770047044
S1130780184B98470620184B9847184B98476B46C8
S11307905C701C725C7204236A4613701C330193F0
S11307A069460220124EB0470220124DA847124B50
S11307B01C725C729C72DC7201976B465C7006233F
S11307C06A4613701472547269460020B0470020C0
S11307D0A84705B0F0BDC0460008004000400041F5
S11307E0350A0000610600009D060000FD070000B8
S11307F021080000D908000000040040064A93695B
S113080008210B4393610122044B1A7019000B78E1
S11308101342FCD17047C04600040040000C004065
S113082070B5060004000D782D0205434B78002BAB
S113083002D08023DB021D434B7A002B02D080239D
S11308401B031D434868012810D9431E184234D1A4
S1130850022830D90223002201325B009842FBD8DF
S113086012023243140080235B031D430B7A002BD6
S113087002D080239B031D43134A53785BB2002BA1
S1130880FBDB124B9847124B1E700F4A53785BB236
S1130890002BFBDB0C4B9C601A0053785BB2002BE3
S11308A0FBDB094A5368802149020B401D43556014
S11308B0084B984770BD0022D2E7040234438023DA
S11308C09B021D43D2E7C046000C00401D030000FC
S11308D0080C00405D03000010B504000B4A537877
S11308E05BB2002BFBDB0A4B98470A4B1C70074A90
S11308F053785BB2002BFBDB044A516880235B0214
S11309000B435360044B984710BDC046000C004095
S11309101D030000040C00405D03000070B50400DA
S11309201A4A53785BB2002BFBDB194B9847194BDF
S11309301C70164A53785BB2002BFBDB134E7068B5
S1130940C004C00E144B98470500124B1C70766807
S1130950F602F60F114B1C700C4A53785BB2002B55
S1130960FBDB0A4B9C682402240C0D4B9847002E99
S113097007D1012C07D9210028000A4B984705000C
S113098001E00134E540280070BDC046000C004081
S11309901D030000040C0040CD050000080C0040BD
S11309A05D0300007D15000010B50400064B984758
S11309B0064B1C70064A53888021C9010B4353809F
S11309C0044B984710BDC0461D030000020C0040B4
S11309D0000C00405D03000010B504000F4B984765
S11309E00F4B1C700F4A53881B05180F53880E4970
S11309F00B40538053880D490B40538011008022D3
S1130A00D2014B881342FCD106494A8803020648A6
S1130A10024013434B80064B984710BD1D03000052
S1130A20020C0040000C0040FFF0FFFFFFBFFFFF7F
S1130A305D03000010B50C7824020443024B984770
S1130A40A4B2024B5C8010BDD9090000000C004028
S1130A5010B50400064B9847064B1C70064B5C8887
S1130A602405240F054B98472000054B984710BDDB
S1130A701D030000020C0040000C00405D03000058
S1130A801D0900007047000010B5054B9847054B41
S1130A909847054B9847054B9847054B984710BD19
S1130AA04507000085020000850A0000C50100001A
S1130AB0850A0000FEE70000F8B52A4A2A4B9A424C
S1130AC011D01A00294B9A420DD2294A03339B1A9A
S1130AD09B0801339B000022234822498C588450F0
S1130AE004329A42FAD1234A234B9A420AD2D3437C
S1130AF021495B1803218B4304339B18002102C254
S1130B009342FCD11D4AFF211D4B8B439360FD3959
S1130B1090235B001B4AD1501B4AD3780325AB4377
S1130B2002242343D370D3780C27BB4308263343D2
S1130B30D370164B987B3022904320221043987335
S1130B40997BB943314399739A7BAA4322439A739D
S1130B500F4A536880210B4353600E4B98470E4B4A
S1130B609847FEE7383B000000000020700000209A
S1130B7004000020700000200C01002000ED00E0C3
S1130B800000000000700041005000410048004196
S1130B9000400041B1390000ED0C000070B5034D78
S1130BA02800034CA0472800A04770BDB8000020CF
S1130BB03D04000010B503280ED800280DD11A4AB0
S1130BC002239361194B0821596107399161042269
S1130BD05A611748174B984710BD01280ED00228B8
S1130BE017D00328F5D1104A022393610F4B082133
S1130BF059610739516104229A61EAE70A4A0223DA
S1130C0053610A4B082199610739916104225A61A1
S1130C10DFE7054A02235361044B08219961073930
S1130C20516104229A61D4E70044004180440041A8
S1130C30DC05000055010000F0B5C64600B506000D
S1130C40254A13681B1813600024002803DD234D74
S1130C50234FA8460DE0002829DA204D204FA8464E
S1130C601AE0002B02DA03221C4B1A600134A6425C
S1130C701DD02878B8472B6801332B60032BF0DD97
S1130C80002342461360F1E7002B02DA0322134BE0
S1130C901A60013CA6420AD02878B8472B68013B69
S1130CA02B60032BF0DD002342461360F1E70021A3
S1130CB00C4D1F2401204A595309DB010A4EB44646
S1130CC063442240060096405E6104311029F2D14B
S1130CD004BC9046F0BDC046B0000020B400002023
S1130CE0B50B0000403A000000440041F0B5D64680
S1130CF04F464646C0B588B0584B9847584B98471E
S1130D0004AA012393700023D37013719360D360FA
S1130D10A023DB001380534C53492000534B9847C6
S1130D202000534B984700212000524B9847200045
S1130D30514B98476420514B9847504B984689E053
S1130D40C820C04722E0C8204D4B984700224D4B95
S1130D501A70C820494B98474B4B1B6A5B0203D45B
S1130D604A4B1B6A1B042CD5494CA0470500494833
S1130D70424B9847A047401B0390424B1B78002BE3
S1130D802BD10220B8473378002BD9D03E4B1B6AB5
S1130D905B0203D43D4B1B6A1B04D4D43B4B1B6A3C
S1130DA01B04D9D4384B1B6A5B02D5D5C8204042FA
S1130DB0334B98470022334B1A70C8202F4B984767
S1130DC0CAE7FA2080002D4B9847314B9847324BA5
S1130DD0186001222B4B1A70C6E72D4B98472E4BF7
S1130DE01B68C01A2D4B98472D4D2E4A2E4BA847F1
S1130DF02E4CA0472E4EB0472E4A2F4BA847A04753
S1130E0001902E4B18682E4B98472E4A2E4BA8471C
S1130E10A0472E4B9946011C9847B04700222C4B03
S1130E202C4FB84702000B0000202B492B4FB8472A
S1130E30A047B0472A4B98472A4A2B4BA847A047BC
S1130E40011C0198294B98472949C847294B9847C1
S1130E500B4B9847094F0B4E93E7C046890A000095
S1130E6015010000B800002000140040ED0400004B
S1130E70D903000001040000950300008101000073
S1130E80390C0000AC0000208044004100440041C3
S1130E909D0B000010270000C00000204137000017
S1130EA0512B0000FCA9F1D24D62503F553800008F
S1130EB0B1370000E9A9C42BFF10713FB000002036
S1130EC0BD360000057C33C71FBA393F1117000037
S1130ED000F1CE40E92200000000F03F5130000054
S1130EE0F90E000012143FC6DCA54C405119000055
S1130EF0000048C2891C0000F0B54746CE4680B5C4
S1130F008DB004000D0000F057F8274B06009846FA
S1130F101B780F005BB2013331D022002B0020007C
S1130F20290002F0ABFB8146002828D120002900CB
S1130F3000F018FB00221D4B00F0D6FB00281ED049
S1130F40012302931A4B1B4803934B4606940795BF
S1130F500A930494059500F00BFB43461B78089014
S1130F6009915BB2022B11D002A800F0FFFA00280D
S1130F700CD00A9B0193002B10D1089E099F3000CE
S1130F8039000DB00CBC90469946F0BD02F00AFD44
S1130F90212303600A9B0193002BEED002F002FD93
S1130FA00A9B01930360E8E7090000200000F03F7A
S1130FB0503A0000543A0000F0B5DB4A4B0085B0CB
S1130FC007000E005B0893420CDDD84A9446634444
S1130FD0034300D0ACE0002900DC25E1002000211F
S1130FE005B0F0BDD24A934200DC9BE0002900DA50
S1130FF01DE102000B000020CE4902F029F8002276
S1131000CD4B01F0A5FD04000D0000F0CBF9CB4A57
S11310100F0000900191CA4B2000290001F098FDB7
S1131020C84AC94B00F050FE22002B0001F090FD8D
S1131030C64AC74B02F00CF822002B0001F088FDD1
S1131040C44AC54B00F040FE22002B0001F080FD95
S1131050C24AC34B01F0FCFF22002B0001F078FDD3
S1131060C04AC14B00F030FE22002B0001F070FD9D
S1131070BE4A02900391BE4B2000290001F068FD96
S1131080BC4ABD4B01F0E4FF22002B0001F060FDDF
S1131090BA4ABB4B00F018FE22002B0001F058FDA9
S11310A0B84AB94B01F0D4FF22002B0001F050FDE7
S11310B00022A04B00F008FE02000B0002980399E6
S11310C001F012F9009A019B01F042FD0026029002
S11310D0039132003B003000390001F039FD020079
S11310E00B002000290001F0B3FF320004000D00C2
S11310F0009801993B0000F0E7FD02000B0020007E
S1131100290001F0F1F802000B000298039900F0A5
S1131110DBFD32003B0000F0D7FD02000B0000F0C5
S1131120D3FD5DE7994A93420BDC9948994957E707
S113113002000B0001F08CFF02000B0001F0D4F858
S11311404EE702000B0001F003FD04000D007B4A92
S11311507B4B01F0FDFC7B4A7B4B00F0B5FD22008C
S11311602B0001F0F5FC794A794B01F071FF220064
S11311702B0001F0EDFC774A774B00F0A5FD22002F
S11311802B0001F0E5FC754A754B01F061FF22006C
S11311902B0001F0DDFC734A734B00F095FD220037
S11311A02B0001F0D5FC714A00900191704B200096
S11311B0290001F0CDFC6F4A6F4B01F049FF22007A
S11311C02B0001F0C5FC6D4A6D4B00F07DFD220043
S11311D02B0001F0BDFC6B4A6B4B01F039FF220080
S11311E02B0001F0B5FC0022524B00F06DFD020013
S11311F00B000098019901F077F83A00330001F0F0
S1131200A7FC02000B006448644901F021FF0200BE
S11312100B003800310001F01BFF02000B005C489A
S11312205C4901F015FFDBE659485D49D8E6002228
S1131230404B00F049FD00223F4B01F089FC0400C3
S11312400D003E4A3E4B01F083FC3E4A3E4B00F00B
S11312503BFD22002B0001F07BFC3C4A3C4B01F09F
S1131260F7FE22002B0001F073FC3A4A3A4B00F0DF
S11312702BFD22002B0001F06BFC384A384B01F0A7
S1131280E7FE22002B0001F063FC364A364B00F0E7
S11312901BFD22002B0001F05BFC0090019120005B
S11312A0290000F07FF8314A06000F00304B20007F
S11312B0290001F04DFC2F4A2F4B01F0C9FE2200FA
S11312C02B0001F045FC2D4A2D4B00F0FDFC2200C3
S11312D02B0001F03DFC2B4A2B4B01F0B9FE220000
S11312E02B0001F035FC0022124B00F0EDFC020053
S11312F00B000098019900F0F7FF32003B0001F069
S113130027FC254A254B01F0A3FE32003B0000F0E8
S1131310DBFC02000B0000F0D7FC02000B001C48B1
S11313201F4901F095FE5BE6FFFFEF3F000010C090
S1131330FFFFDF3F0000F03F0000E03F09F7FD0D35
S1131340E13D023F88B20175E0EF493F3B8F68B54C
S11313502882A43F5544880E55C1C93F7D6FEB03D5
S113136012D6D43F555555555555C53F82922EB189
S1131370C5B8B33F59018D1B6C06E63FC88A599C1A
S1131380E52A00404B2D8A1C273A03400000603CAC
S1131390182D4454FB21F93F075C143326A6913CD5
S11313A0FB2109406C4BF0B50A0046460D00D646B9
S11313B04F461900C0B5040006002940994200D1E7
S11313C0A7E0002D00DC81E02F1500D18EE0634BF7
S11313D012039C468023120B5B0367441A43FB07EA
S11313E068D47B109C46E30F9B189B18802216211F
S11313F00026002564009203A818984202DC851890
S11314001B1AB618E00F5B0001391B186400520860
S11314100029F1D100229246904680222020120613
S113142009E0AB4238D0E10FC9180138CB18640089
S11314305208002818D041465118AB42F1DD8F18EC
S1131440B846A946002930DB5B1B8C42AD416D4296
S11314505B1B641AE10FC918013892444D46CB183E
S1131460640052080028E6D1234328D153465B0880
S11314703B49721088464244F10702D5802109068F
S11314800B4361461E000F05BD18300029001CBC2B
S113149090469946A246F0BDA142C4D88F18B846DA
S11314A0002942DB99460023D3E7002F2FDB6F1C72
S11314B0B946C9E7E10F52008A18640091E7534620
S11314C0013335D0534601335B08D1E76B005B0829
S11314D00343DAD00027002D32D1E20A153F640518
S11314E0002AFAD080235B031A4224D180200023EF
S11314F0400300E00B005200591C0242FAD02020A5
S1131500401AFF1A2300C3408C401A435FE7A946E0
S11315109AE72B000200290001F01AFB32002B008D
S113152000F0D2FB06000D00AFE7002FBFDAB9E7E9
S1131530013600239CE70123002120205B42E0E7E1
S11315402B000200290001F083FD02000B0000F0D3
S1131550CBFE06000D0098E70000F07F01FCFFFFC2
S11315600000E03F49004B08190070470020704715
S1131570002001497047C0460000F87F002243085C
S11315808B4274D303098B425FD3030A8B4244D347
S1131590030B8B4228D3030C8B420DD3FF22090289
S11315A012BA030C8B4202D31212090265D0030B48
S11315B08B4219D300E0090AC30B8B4201D3CB033E
S11315C0C01A5241830B8B4201D38B03C01A524180
S11315D0430B8B4201D34B03C01A5241030B8B4282
S11315E001D30B03C01A5241C30A8B4201D3CB026D
S11315F0C01A5241830A8B4201D38B02C01A524152
S1131600430A8B4201D34B02C01A5241030A8B4254
S113161001D30B02C01A5241CDD2C3098B4201D36C
S1131620CB01C01A524183098B4201D38B01C01AEA
S1131630524143098B4201D34B01C01A5241030961
S11316408B4201D30B01C01A5241C3088B4201D310
S1131650CB00C01A524183088B4201D38B00C01ABD
S1131660524143088B4201D34B00C01A5241411AE4
S113167000D20146524110467047FFE701B50020F1
S113168000F006F802BDC0460029F7D076E770479F
S11316907047C0468446101C62468C46191C63463B
S11316A000E0C0461FB501F0F1F9002801D4002183
S11316B0C8421FBD10B501F04BF94042013010BDC6
S11316C010B501F0E3F9002801DB002010BD012072
S11316D010BDC04610B501F0D9F9002801DD002085
S11316E010BD012010BDC04610B501F06BF90028F3
S11316F001DC002010BD012010BDC04610B501F072
S113170061F9002801DA002010BD012010BDC04697
S1131710F8B557464E464546DE46E0B54702460014
S113172088467F0A360EC40F002E47D0FF2E24D0E1
S1131730FB008027FF041F43002399469A467F3EFF
S113174043465D025800DB0F6D0A000E984643D0F5
S1131750FF283BD0EB0080250022ED041D437F3899
S11317603618731C41469B464B46614013430F2B6E
S113177064D875489B00C3589F46002F42D1082364
S11317809946063BFF269A46DAE74146022A28D0C4
S1131790032A00D1CEE0012A00D0ACE011400020A1
S11317A00022CCB24002D205400AE4071043204391
S11317B03CBC90469946A246AB46F8BD002F15D1D5
S11317C004239946033B00269A46B9E7FF200222E8
S11317D0002DC5D00322C3E7002D19D1002001221A
S11317E0BEE70124FF220C400020DBE7380002F0B2
S11317F0BBF87626431F9F4000237642361A99464B
S11318009A469DE70C239946093BFF269A4697E79B
S1131810280002F0A9F8431F9D4076235B42181A62
S113182000229DE780200024C003FF22BAE73D0088
S11318305246ABE73D0021005246A7E73B0C9C46CD
S11318402A04120C2B0C1400604665463F043F0C1E
S11318507C4342435D437B43270C9B18FF18BA42E9
S113186003D980235B029C46654424043A04240C77
S1131870121993015C1EA3413F0C920E7D191A4369
S1131880AD0115432B0104D501235E466A081D40B2
S1131890154332007F32002A25DD6B0704D00F2365
S11318A02B40042B00D004352B0103D53200274BE9
S11318B080321D40FE2A94DC0124A801400AD2B2E1
S11318C00C406FE78020C003074207D0054205D1D2
S11318D028434002400A4446FF2263E7384340025B
S11318E0400AFF225EE70124A31A1B2B05DD0C40EE
S11318F00022002056E75E46CBE72A002020DA408B
S1131900C31A9D402B005D1EAB4113435A0704D0FC
S11319100F221A40042A00D004335A0104D50124AA
S113192001220C4000203DE701249B01580A0C4091
S1131930002237E780200124C00328434002400AE4
S11319400C40FF222EE7C046583A0000FFFFFFF785
S1131950F0B54F46D64646464400C0B5C20F4702CE
S11319604802400A844666467B0A4800C90F9A46E4
S1131970240E1500DB00000E8946F600FF2800D176
S11319808FE001214F464F403900914266D0221A20
S1131990002A00DC9DE000283DD1002E00D18BE020
S11319A0511E002900D0B5E001249B1B5A0144D5E7
S11319B09B019F09380001F0D7FF05388740844216
S11319C000DD96E0041B3A0020200134E240041BB1
S11319D0A7403B005F1EBB41002413435A0704D0B9
S11319E00F221A40042A00D004335A0127D50134A7
S11319F0FF2C00D179E001229B015B0AE4B22A406A
S1131A005B02E405580AD207204310431CBC9046ED
S1131A109946A246F0BDFF2CE0D08021C9040E43B4
S1131A201B2A7BDC31002020D140821A9640721E92
S1131A3096410E439B1B5A01BAD45A07D0D10122B6
S1131A40DF082A40FF2C33D1002F00D1A8E08023E7
S1131A50DB033B435B025B0AFF24D1E7211A002925
S1131A604CDD00282AD0FF2CB8D08020C0040643C7
S1131A701B2900DDAFE030002027C840791A8E40D2
S1131A80711E8E4106439B195901D6D50134FF2C92
S1131A9000D185E001227A491A405B080B401343C8
S1131AA09CE7002E00D070E76BE73B1EC5D10022F7
S1131AB07B025B0AE4B2A3E714008FE7002E4DD04B
S1131AC0481E002857D19B1901245A01B5D5022478
S1131AD0E0E7002A25D1621CD2B2012A72DD9F1BE5
S1131AE07A0135D5F71A0D0064E7012200232A4054
S1131AF086E73B00634A241A13406FE700296CD140
S1131B00611CC8B201284EDDFF2949D09B195B082E
S1131B100C0063E7FF2A41D00A0081E701269B1BE2
S1131B2089E7002C1CD0FF2821D08024E4045242F1
S1131B3023431B2A00DD96E01C002025D440AA1A6A
S1131B4093405A1E93412343F31A04000D002DE7DA
S1131B50002F00D02EE700220024A9E70C003DE767
S1131B60002B58D0D243002AEED0FF28E1D1330015
S1131B70FF240D0032E7FF2910D0010078E7002B85
S1131B806ED0FF24002E00D128E780225146D203D4
S1131B90114203D06146114200D13300FF241DE7F6
S1131BA0FF2400232CE7002CE9D1002B63D0002E66
S1131BB000D113E79B195A0100D43EE7314A0C00C7
S1131BC013400BE7002C1ED1002B2FD1002E4FD039
S1131BD033000D0002E7012655E7002C1FD1002B2E
S1131BE043D0C94300290BD0FF2839D01B2944DC3A
S1131BF01C002027CC40791A8B40591E8B4123436B
S1131C009B19040040E7002B1AD1002E24D1802711
S1131C100022FF031BE7330004000D00DEE6FF286B
S1131C201ED08024E40449422343DFE7002E00D180
S1131C30D4E69F1B7A0100D437E7F31A0D00CDE6F2
S1131C40FF24002E00D1C9E680225046D203104260
S1131C50A4D060461042A1D133000D00FF24BDE69C
S1131C603300FF24BAE601236EE733000400B5E62F
S1131C70002700221CE73300B0E60123C0E7C0467A
S1131C80FFFFFF7DFFFFFFFB41024300C20F490A34
S1131C901B0E00207E2B0DDD9D2B0CDC8020000410
S1131CA00143952B0ADC9620C31AD9404842002AE6
S1131CB000D108007047034BD018FBE7963B9940CE
S1131CC0F4E7C046FFFFFF7FF8B54546DE465746BA
S1131CD04E460C03E0B54E00C90F88460D00610A5C
S1131CE0440F0C43C70019035800DB0F9B464B0AF3
S1131CF0510F0B43760D400D1900D200D84500D189
S1131D00AEE0351A002D00DCF6E000280FD11343B5
S1131D1000D1DBE06B1E002B00D037E1BA1A9742EA
S1131D20BF41641A7F42E41B0126170024E0C64B1E
S1131D309E424DD080231B041943382D00DD07E15A
S1131D401F2D00DD38E12020431B9A460B0050462E
S1131D508340994613004846EB401843030050461D
S1131D608240501E8241E9401A43BA1A611A9742CE
S1131D70A441170064420C1B230262D56402650A65
S1131D80002D00D1DFE0280001F0EEFD0300083B48
S1131D901F2B00DDD2E020223C00D21A9D40D4400B
S1131DA09F4025439E4200DDC4E09E1B731C1F2BF5
S1131DB000DDF1E0202238002900D21AD8409140F9
S1131DC097402C000143781E8741DC4000260F43D6
S1131DD07B0709D00F233B40042B05D03B1DBB429E
S1131DE0BF417F42E4191F0023022CD5964B0136D4
S1131DF09E4200D19AE04546944BFF081C40600780
S1131E00760564020743240B760D00212403230B7B
S1131E100C0D8F4A24051C431440330523435B00F7
S1131E20ED075B082B43380019003CBC90469946EB
S1131E30A246AB46F8BD6446044300D111E2040057
S1131E4067467B07C6D145466007FF080743E40899
S1131E507D4B9E4230D024037605240B760DD4E7C7
S1131E60331A9A46002B78DD002831D07648864212
S1131E70AED08020000401435346382B00DCE9E057
S1131E800A43511E8A410021D219BA42BF4109199D
S1131E907C4217000C192302D3D56B4B01369E42AA
S1131EA000D13AE10120694B1C407B0807401F43E5
S1131EB0E007074364088BE723003B4300D1CBE1F1
S1131EC08022120314432403240B9EE72E007FE791
S1131ED00800104300D1B4E0581E002800D0DEE012
S1131EE0BA18BA429B4164185B42E41817000126F1
S1131EF02302A6D50226D5E7002D6ED1701C40051D
S1131F00400D012800DCF9E0B81A8446874280417C
S1131F10E51A40422D1A280200D489E0D71BBA42A0
S1131F2092411C1B5242A51AD84629E74546002473
S1131F3000276AE7454CF61A2C4049E73D0028384B
S1131F40854000272EE7380001F00EFD20301DE704
S1131F500A43511E8A41002107E7002B00D0F3E019
S1131F60701C43055B0D012B00DCADE0364B984241
S1131F7000D1D1E0BA18BA42BF4164187F42E419D3
S1131F80E707520817436408060021E72E488542F4
S1131F9000D193E01D00D0E629001F3EF140202B24
S1131FA000D18DE04022D31A9D402F437D1EAF41C6
S1131FB000240F43002644E72B000800203BD840B0
S1131FC00300202D00D17DE04020451BA9400A4399
S1131FD0511E8A4100211A43C7E6002E50D01A4EE2
S1131FE0B04257D080266B429946360434434B4660
S1131FF0382B00DDD6E01F2B00DD35E12026F51A55
S11320002600AE40B2463E00DE40AC4635005646A1
S11320102E436546AF407D1EAF41DC403743D71B9E
S1132020BA4292410C1B5242A41A0600D846A3E6B7
S1132030644667462C4300D0A2E60025002600270C
S113204006E71E00C4E6C046FF070000FFFF7FFF4F
S1132050FFFF0F801F2B63DC2020C31A0800984069
S11320609C46834653461000D84003005846184304
S113207063469A40531E9A4153460243D94003E7AC
S113208026003E4306D0EB439946002BC7D0944E1E
S1132090B042ACD10C0017000600D84698E6904B2D
S11320A09A450BD08246E7E6002800D09EE018004F
S11320B0104300D1E9E01C001700D846884E87E69B
S11320C0002572E7002182E723003B43002E00D065
S11320D0ABE0002B00D1E7E00B00134300D177E61F
S11320E0BA18BA42BF4164187F42E419230200D4EB
S11320F0F2E07C4B17001C40060069E620003843E0
S1132100002ED1D100285BD11C00144300D1A8E0DB
S11321101C001700D8465BE606000024002797E65B
S113212050460B002038C34099465346202B00D11B
S113213095E0402350461B1A99400A43511E8A4198
S11321404B4600211A439FE6002E30D126003E4321
S113215067D0DB439A46002B1CD0614EB04260D05E
S11321605346382B00DD96E01F2B00DD9FE0202630
S1132170F31A26009E409C46B34653463E00DE407A
S113218033005E461E4363469F407B1E9F41534679
S1132190DC403743BF189742924164185242A41856
S11321A0060078E627437C1EA741002437E74C4EFF
S11321B0B04236D080265B4236049A463443CFE799
S11321C01800104300D103E6B81A84466745AD41B0
S11321D0E01A6D42401B050200D42CE6D71BBA421C
S11321E092411C1B5242A41AD846F1E51800104330
S11321F000D163E7F808670707438020E408000379
S1132200044208D0DD08054205D1D208590711431C
S11322100F002C00D8467B0FE4001C43FF00304E17
S1132220D6E50C0017000600D2E5002B38D00B00D1
S1132230134300D142E7F808670707438020E40806
S113224000030442E7D0CB080342E4D1D208490793
S113225011430F001C00DEE700270024D5E5002110
S11322606BE700250027F3E54E462500203EF540A8
S11322704B462E00202B2DD04025ED1AAC40274391
S11322807C1EA74100243743C9E68024002524038B
S1132290134E0027DCE527437C1EA741002479E781
S11322A00C0017000E4E93E50C00170090E55646FF
S11322B02300203EF34099465346202B0ED0402362
S11322C056469B1B9C4027437C1EA7414B4600243B
S11322D01F435FE70024D2E71700B2E50024F2E7CA
S11322E0FF070000FFFF7FFFF0B557464546DE4677
S11322F04E46E0B54C000E0387B0834692461D005F
S11323008046360B640DCF0F002C4FD06F4B9C4290
S113231035D08023420F1B04F60013433343994600
S1132320C30098466A4B00269C46002364440393EA
S11323302B031B0B9B466B00ED0F50465B0D019569
S11323405ED0624A934253D05A46D1008022400F55
S1132350120402430A4393465246D1005C4A94460F
S1132360002263443800684084460290E41A16430D
S11323700F2E00D9B4E0574BB6009B599F4603007B
S1132380334399466CD100239846023308260393BD
S1132390CEE7CB464146039A0197022A65D1019BB9
S11323A04A4C9C460023002298466BE003003343CA
S11323B099464ED0002E00D1BCE1300001F0D4FA91
S11323C003000B3B1C2B00DDACE11D22D31A5A4643
S11323D00100DA4008398E401300334399465B46C6
S11323E08B40984600233C4C0026241A03939FE715
S11323F051465A46114329D1002293460232B1E78D
S1132400594601431ED05B46002B00D19EE158463D
S113241001F0AAFA03000B3B1C2B00DD8FE1020044
S11324205946083A91408B461D21CB1A5146D94052
S11324300B0059460B4351469B469140264B0022C4
S11324401B1A8FE7002301229B468BE75146032288
S113245088E700239846013304260024039367E7A2
S11324600323B14603930C2662E7032A00D15CE2FE
S1132470019B012A00D0E4E113409C460023002480
S11324800022984600211203130B0A0D12051A4369
S11324902305124C40462240134362465B00D20798
S11324A05B081343190007B03CBC90469946A2460A
S11324B0AB46F0BD002380229C4612039846034C91
S11324C0E0E70023014C00229846DBE7FF07000009
S11324D001FCFFFF983A00000DFCFFFFFFFF0F8097
S11324E0D94500D939E100D134E1002346464D46AF
S11324F09A46013C5B460A0E1B021A430B02170C58
S1132500039313041B0C3900280090460193FFF732
S113251035F80200019B83465A432800390091464E
S1132520FFF7B2F8350C09040D43A9450DD95B46F4
S11325304544013BA84500D93AE1A94500D837E113
S113254002235B429C464544E3444B46EB1A390064
S113255018000493FFF712F8019B05004343390068
S113256004989946FFF790F8330409041B0C0B43B5
S1132570994509D943446A1E984500D91AE19945F9
S113258000D817E1023D43444A469B1A5A461204B6
S11325902A4303999346100C0A0C914609045A469F
S11325A0090C4E460D001204120C4543059151438B
S11325B07243704352190E0CB218954203D9802508
S11325C06D02AC466044150C09041204090C281869
S11325D05218834200D2CEE000D1C8E01D1A5346FF
S11325E09E1AB24592415242AB1A9A46984500D17E
S11325F017E139001800FEF7C1FF019B05004343B2
S1132600390050460493FFF73FF804980B04310C4B
S11326101943884209D941446B1E884500D907E112
S1132620884200D804E1023D4144049BCB1A1800BF
S113263039000493FEF7A2FF019B8246434339000D
S113264004980193FFF720F801980B043104090C56
S1132650194388420DD953464144013B884500D96A
S1132660E8E0884200D8E5E002235B429C4641440E
S1132670E244019B2D04CE1A51462943059D4F4641
S11326802A000B04080C1B0C5A4345437B43784334
S11326905B19170CFB189D4203D980256D02AC46CB
S11326A060441D0C12041B04120C28189B1886424B
S11326B000D293E000D18EE001231943A04BE3182C
S11326C0002B00DC99E04A0700D09EE05A46D20174
S11326D006D55A469B4B1A4080239346DB00E318E9
S11326E0994A934268DD0123029A984C1A400023C8
S11326F0944698460022C5E680224B4612031342B4
S11327000AD05B46134206D11A431203120BAC469D
S113271088468E4CB6E64B461A431203120BBC464F
S11327208A4CAFE603005A46283B9A400023914660
S1132730984657E6584601F017F9203040E6030062
S11327405246283B9A400021934677E601F00CF963
S113275020305FE6884500D2C7E64B46DE075D08B9
S113276043465B081E434346DB079A46C2E6002500
S1132770924500D333E7039E5946B446E244B2453A
S1132780AD416D424544EB180139984507D2984252
S113279000D97FE000D1BCE01D1A8B461FE79845A5
S11327A0FAD1039D5545F2D943468B461D1A16E7C7
S11327B09B46CAE61500E7E65A46C90852070A438B
S11327C05B0590465C0D5A4601230299520219405A
S11327D0120B8C4656E6002B00D16FE746444A1E86
S11327E0B04529D91100864200D065E7039A934287
S11327F000D061E762E7012149420120C21A382A68
S113280021DD029B03409C4638E60F220A40042A3D
S113281000D15BE70A00111D914292415242934458
S113282054E7474BE318002BE5DD01225242F2E75F
S11328301D00FAE69A461CE7B04239D86ED0110062
S11328403AE702933AE71F2A3CDC20239B1A0C0048
S11328505846994098404B1E99415B46D440D3401A
S1132860204308431A00430709D00F230340042BD5
S113287005D00100081D88429B415B42D218130217
S11328803AD50123029A01241A400023944698461B
S11328900022F7E5022149428C46039DE344AC46FD
S11328A0E244AA45AD416D424544ED182D1A96E621
S11328B08A1E03994D008D4289414942414476184C
S11328C003958FE71F204042C31A5846D84003009F
S11328D0202A28D040205D46821A954029434A1E6A
S11328E091411943072300220B4009D00F230022F2
S11328F00B400800042BBDD1010053075202120BF8
S1132900C9081943012388460299002419408C46BA
S1132910B8E55245BED88B46002560E6039D9D422E
S1132920C6D3110062E70025D8E780225B46120374
S11329301A43019B1203120B9C468846034CA1E5E3
S1132940FF030000FFFFFFFEFE070000FF0700007B
S1132950F0B54F464646D6465C00C0B51F03DB0FB4
S11329609A46174B0E034D0084468046360B6D0D78
S1132970C90F91463F0B640D01209D4208D09C4233
S113298001D0A5420BD01CBC90469946A246F0BD8E
S113299063463343F7D1AC42F5D13A43F3D1012036
S11329A0BE42F0D1C845EED1514507D0002DEAD141
S11329B063461E433000461EB041E4E70020E2E7D0
S11329C0FF070000F0B54546DE4657464E46E0B5E3
S11329D01F033D0B2C4F0E034C00AB465D00844699
S11329E0360B640DC90F90466D0DDB0FBC422AD027
S11329F0254FBD422DD0002C0FD130430700814616
S1132A0078427841C0B2002D17D15F463A4314D1C1
S1132A104B460020002B0AD006E0002D02D1584678
S1132A20024301D0994218D04842012108433CBCDA
S1132A3090469946A246AB46F0BD0028F2D001204C
S1132A40013B1843F3E737000743D1D0022040424B
S1132A50EDE75F461743CED0F8E7AC42E4DC03DA97
S1132A60481E01210843E2E75E45DDD806D0002078
S1132A705E45DCD20123481E1843D8E7C445D3D8A9
S1132A800020C445F6D3D2E7FF070000F0B54E4658
S1132A904546DE4657465C00E0B51F03DB0F99460A
S1132AA02A4B0E034D00C90F8446360B6D0D8B4621
S1132AB090463F0B640D9D4220D0244B9C4222D073
S1132AC0002D12D1304343424341DBB2002C1FD0CE
S1132AD0002B0CD04B460120013B034318003CBCA7
S1132AE090469946A246AB46F0BD002C16D0CB4585
S1132AF017D05B46594201230B43EFE73100022311
S1132B000143EBD1D9E7390002231143E6D1D7E7DA
S1132B103A43DDD100230028E0D0EAE73A43E6D186
S1132B20E7E7A542E5DC05DBBE42E2D807D0002397
S1132B30BE42D3D25946012301390B43CEE7C445E3
S1132B40D7D80023C445F5D3C8E7C046FF07000023
S1132B50F0B557464546DE464E46E0B50C0398466A
S1132B604E00230B87B0070092469B46760DCD0F8F
S1132B70002E6BD06D4B9E4235D080245B46420FB5
S1132B802404DB0014431C43C3009946684BA3464A
S1132B909C46002300276644029343461C035A00C4
S1132BA0DB0F5046240B520D984600D176E05F4B64
S1132BB09A426DD08023410F1B040B435C49E4000F
S1132BC08C461C43C300002062444146B618694049
S1132BD0721C0191944607430F2F00D9B0E0554A67
S1132BE0BF00D25997465B460343994600D087E01D
S1132BF000239B46023308270293CEE74246019204
S1132C00022867D0032800D10EE2012800D062E137
S1132C10002300240022994601990140CDB20021ED
S1132C2012030B0D120B1B051343434A24051340D7
S1132C301C436400ED0764082C434846210007B098
S1132C403CBC90469946A246AB46F0BD0343994628
S1132C504FD05B46002B00D189E1584600F084FE3A
S1132C6003000B3B1C2B00DD7AE11D22D31A3A0032
S1132C7001005C46DA4008398C4013008F4023433E
S1132C809B46B94600232D4E0027361A029384E74B
S1132C90534623432AD10024022096E75346234374
S1132CA020D0002C00D157E1200000F05DFE03008D
S1132CB00B3B1C2B00DD49E11D21CB1A51460200C0
S1132CC0D9405346083A944093400C431B4A121A85
S1132CD000207AE70125019B144C1D4000230022AB
S1132CE099469CE70024002201206EE75346032006
S1132CF06BE700239B4601330427002602934CE72D
S1132D00032381460C27029347E7802200230025F2
S1132D1012039946054C82E75C464B4602986FE7DE
S1132D205C464B46019502986AE7C046FF070000DF
S1132D3001FCFFFFD83A0000FFFF0F800DFCFFFFEE
S1132D404A464946170C1A0C1B041B0C08041900AC
S1132D50000C41431500884619007D4379430395CF
S1132D6089462900150045434D44029545462D0CDE
S1132D70AA46029D5544A94506D98A46802149029E
S1132D808946CA4451460391290C049141460904D9
S1132D902D04090C88462900250C24044144240CE4
S1132DA00591210041438846210079438A466843BE
S1132DB0414650448146080C48446F43824503D938
S1132DC08021490289464F44010C8946390049440F
S1132DD0029141460F0404993F0C88460004C0192F
S1132DE080444146049159460F0C0904090C884655
S1132DF059438A4639005143894641464A4351461C
S1132E00090C8B467B43D2185A44934203D980233E
S1132E105B029B46D94451460904090C8A46414643
S1132E2061437C43130C12044B445244A1468A462A
S1132E303C0041466C434D4351464D440F0C7D19B3
S1132E40A94503D98021490288464444049F039933
S1132E50B84641448B4683458041414288465146A9
S1132E6008042F04000C3F1858460299101889468C
S1132E70904292414F44BA46524299469346C244C4
S1132E80D144CB448F42BF41C245894199459B41BE
S1132E90934592417F4249422D0C52420F435B427B
S1132EA013437F19FF185B463C19DB0D059A640236
S1132EB01C43430213435D1EAB415A46C00D0343FA
S1132EC052021343E20156D501205A08034013432A
S1132ED0E207134364085A48604400284DDD5A074A
S1132EE009D00F221A40042A05D01A1D9A429B4188
S1132EF05B42E4181300E20104D58020514AC0006B
S1132F0014406044504A904200DDE3E60125DB08AA
S1132F1062071A436402019B9146220B4405640D27
S1132F201D407CE6802259461203114208D0144207
S1132F3006D122431203120B45469946434C6EE6D2
S1132F405B461A431203120B404C68E603005446D6
S1132F50283B9C400023B9E600F006FD2030A6E69D
S1132F600300283B9F400023BB4699468AE600F0B5
S1132F70FBFC203074E6B446ADE701252A1A382A52
S1132F8006DD019B00241D4000230022994646E6ED
S1132F901F2A21DC20252000AD1A1E00AB40A840CA
S1132FA0D6405D1EAB4130431843D440430709D09B
S1132FB00F230340042B05D00300181D98429B41A6
S1132FC05B42E418230221D50125019B01241D4005
S1132FD000230022994622E61F2521006D42281A6B
S1132FE0C1400800202A1DD05F35AA1A944023430B
S1132FF05C1EA341072503431D400022002D09D078
S11330000F2200241A401800042AD6D103006507B1
S11330106402220BDB082B4301259946019B002403
S11330201D40FCE50024E2E780220125120322432F
S113303001991203120B0D409946044CEFE5C0466A
S1133040FF030000FFFFFFFEFE070000FF07000074
S1133050F0B54646D6464F460C03C0B5CD0F4E00DC
S1133060610A440F0C43C1005800400D84468A464F
S11330700F001903500F490A0143C648760DA846AC
S1133080DB0FD200844500D1D8E001204340AB429D
S113309000D1A6E06046351A002D00DC05E10028C9
S11330A010D10B00134300D1D7E06B1E002B00D0CE
S11330B04BE153469F1ABA458041641A4042241A90
S11330C001261EE0B34B9E4248D080231B041943C3
S11330D0382D00DD19E11F2D00DD4CE120230F0008
S11330E05B1B10009A409F40E840531E9A41E94000
S11330F0074317435346DF1B611ABA45A441644290
S11331000C1B230200D4C5E06402650A002D00D123
S1133110F6E0280000F028FC0300083B1F2B00DD2C
S1133120E9E020223C00D21A9D40D4409F40254330
S11331309E4200DDDBE09E1B731C1F2B00DD0AE1B9
S113314020223800D21A290097402C009140D84000
S11331507A1E9741DC40002601430F437B0709D0C8
S11331600F233B40042B05D03B1DBB42BF417F4294
S1133170E4191F00230225D5864B01369E4200D157
S1133180AFE0854B01251C4043466207FF086402FB
S113319076051743240B760D1D4000212403230BD1
S11331A00C0D7E4A24051C431440330523435B0065
S11331B0ED075B082B43380019001CBC9046994668
S11331C0A246F0BD012543466207FF081743E40801
S11331D01D40704B9E4236D024037605240B760D99
S11331E0DBE76346F31A002B00DC94E0604600281A
S11331F035D068488642B1D080273F043943382B04
S113320000DCFDE00A43170000217A1E9741574471
S113321057458041091944420C1923023AD55D4BA4
S113322001369E4200D14BE101225B4B1C407B08DE
S113323017401F43E207174364088FE70800104351
S113324000D024E721E723003B4300D1B9E18022E9
S1133250120314432403240B9FE72E007EE7080087
S1133260104300D1CAE0581E8446002800D0E7E08D
S113327052445245804164184042241817000126E4
S1133280230207D50226CFE764462C4300D1B3E1DD
S11332902C0067467B0700D062E76307FF081F43E3
S11332A001254346E4081D4093E7002D78D1751CA1
S11332B06D056D0D012D00DCF2E05046801A82454B
S11332C0BF41651A7F42ED1B8446280200D48CE07E
S11332D05046171ABA4292410C1B5542651B984638
S11332E014E70125434600241D40002755E72A4CD6
S11332F0F61A2C4032E73D0028388540002717E7AE
S1133300380000F031FB203006E70A4317000021A3
S11333107A1E9741EEE6002B00D0E5E0731C9C4634
S11333205B055B0D012B00DC9FE01A4B9C4500D133
S1133330C5E0524452458041641840422418E707CE
S1133340520817436408664608E71248854200D1CC
S113335085E01D00BCE629001F3EF140202B00D172
S11333607FE04022D31A9D402F437D1EAF410024AD
S11333700F4300268EE72B000F00203BDF40202D5B
S113338071D040235D1BA9400A43511E8A4100218C
S11333901743AFE6FF070000FFFF7FFFFFFF0F802B
S11333A0002E3ED0B34EB44545D0802636046D423F
S11333B03443382D00DDA8E01F2D00DD1FE1202659
S11333C027005046761BB740E84007435046B040BC
S11333D0461EB041EC403843171ABA4292410C1BC6
S11333E05242A41A664698468BE6644667462C43C6
S11333F000D08BE6002500260027EAE61E00ADE695
S11334001F2B60DC2027F81A0F0084468740100029
S1133410D840074360468240501E8241D94017433A
S1133420F5E626005046064305D0ED43002DD3D0E3
S1133430904EB445BDD10C001700664698468DE603
S11334408C4883420BD06346D9E6002D00D096E029
S11334500800104300D1E2E00C0017009846854EA6
S11334607CE6002580E700218EE7230050460343D5
S1133470002E00D0A8E0002B00D1DEE00B001343A7
S113348000D16BE6524452458041641840422418EE
S11334901700230200D4FDE6774B66461C405DE628
S11334A0250050460543002ECFD1002D4FD10C00EE
S11334B0144300D1A0E00C00170098464EE666467F
S11334C00024002785E61F000800203FF84007007D
S11334D0202B00D18EE04020C31A99400A43511E8C
S11334E08A410021174392E6002E14D1260050464B
S11334F0064362D0DB43002B5CD18718974292418C
S113350064185242A418664687E650462043441E77
S1133510A041002460E7574EB4454ED080263604BF
S11335205B423443382B00DD7FE01F2B00DD8BE052
S1133530202627005046F61AB740D8400743504685
S1133540B040461EB0410743DC40BF18D6E70D002B
S1133550154300D102E65046801A8245BF41651AE0
S11335607F42ED1B8446280200D48DE65046171A8C
S1133570BA4292410C1B5242A41A9846EEE50D0041
S1133580154300D16BE750466707C0080743802006
S1133590E4080003044207D0CD08054204D12C00FE
S11335A09846D70849070F437B0FE4001C43FF00EC
S11335B0304ED3E52F4EB445B4D10C001700664607
S11335C0CCE500270024E8E5002B39D00B00134399
S11335D000D144E7C008670707438020E4080003DC
S11335E00442E1D0CB080342DED1D70849070F4398
S11335F01C00D9E7002171E700250027E9E52E002A
S11336002700203EF740202D2FD04026751BAC40CC
S113361050462043441EA04100243843DCE6802465
S113362000252403134E0027D3E55046204307000A
S1133630781E87410024BF1860E70C0017008DE551
S11336400C0017000B4E89E51E002700203EF740B2
S1133650202B0CD04026F31A9C4050462043441E95
S1133660A04107430024BF1848E70024D0E7002402
S1133670F3E7C046FF070000FFFF7FFF70B50E4E63
S11336800D031C0349005B002D0B490D240B5B0D3E
S1133690B14204D0084900208B4208D070BD0543D4
S11336A00120002DFAD1044900208B42F6D11443A5
S11336B02000441EA041F1E7FF07000070B5002878
S11336C030D0C317C4185C40C50F200000F04CF97B
S11336D0174B184A1B1AD21A1F2A18DD164AD21A77
S11336E09440002224035B05240B5B0D0021100091
S11336F024030A0D240B12052243104C1B052240FF
S113370013435B00ED075B082B43190070BD2100D8
S113371091400A000B21081AC4405B052403240BC2
S11337205B0DE3E70025002300240022DEE7C0460A
S11337301E0400003304000013040000FFFF0F8088
S113374010B5041E28D000F00FF9154B154A1B1AAA
S1133750D21A1F2A15DD144AD21A944000222403D7
S11337605B05240B5B0D0021100024030A0D240BC0
S1133770120522430D4C1B05224013435B005908DC
S113378010BD210091400A000B21081AC4405B05BA
S11337902403240B5B0DE6E7002300240022E2E768
S11337A01E0400003304000013040000FFFF0F8018
S11337B04100090E4B1C70B5DBB24602750AC40FFA
S11337C0012B14DDE0239B006D07360BCB18002181
S11337D00A0D280012051C4D32435B052A405B0884
S11337E013435B00E4075B082343190070BD002901
S11337F014D1002D1ED0280000F0B6F80A281CDCD5
S11338000B232A001B1ADA40030015339D400F4B8B
S113381012031B1A5B05160B5B0DD8E7002D06D0AF
S1133820320B802636036D071643094BCFE7084B4E
S11338300026CCE700230026C9E703002A000B3B3F
S11338409A400025E3E7C046FFFF0F80890300008C
S1133850FF070000F0B54C00640D0B03621C450F1C
S11338605B0A52052B43C90FC500520D012A28DDFE
S11338703A4AA618FE2E1BDC002E3EDD8001020013
S1133880501E82416D0F2A43DB0013435A0704D0B4
S11338900F221A40042A00D004338022D2041A4092
S11338A05AD00136FF2E03D09B015B0AF4B201E02B
S11338B0FF2400235802E405400AC90720430843B3
S11338C0F0BD002C07D01D43F2D08020DB00800423
S11338D00343FF26DAE72B4303D00523DB08FF2C41
S11338E003D05B025B0AE4B2E4E7002B32D0802011
S11338F0C00303435B025B0ADCE73200173214DBCC
S113390080221E2712041343BF1B1F2F0FDC144AEF
S1133910944664442A00A5402E00A340751EAE417F
S1133920FA40334313430026B0E70024D5E70222CC
S11339305242961B1A00F240202F09D009488446AF
S11339406444A3402B435D1EAB41002613439DE713
S11339500023F7E70023ADE73400BFE780FCFFFF57
S113396082FCFFFFA2FCFFFF1C2101231B049842E1
S113397001D3000C10391B0A984201D3000A0839FC
S11339801B09984201D30009043902A2105C4018B3
S11339907047C04604030202010101010000000057
S11339A000000000014B18687047C0460C0000205E
S11339B070B500260C4D0D4C641BA410A64209D111
S11339C0002600F0A9F80A4D0A4C641BA410A64274
S11339D005D170BDB300EB5898470136EEE7B3004C
S11339E0EB5898470136F2E7243B0000243B0000E3
S11339F0243B0000283B0000DE050000DA0500003F
S1133A00DA0500004006000040060000F205000050
S1133A10E4050000F80500002E060000C8060000BA
S1133A20A8060000A806000034070000BA0600003B
S1133A30D6060000AC060000E406000024070000DF
S1133A40010000002300000000000000220000002C
S1133A5061636F73000000003C1800008C170000C5
S1133A608C1700008A1700002E1800002E18000082
S1133A70241800008A1700002E18000024180000E3
S1133A802E1800008A1700003418000034180000B3
S1133A9034180000C4180000E0240000C224000010
S1133AA07C2400009A2300007C240000B42400003D
S1133AB07C2400009A230000C2240000C2240000D9
S1133AC0B42400009A2300009223000092230000F3
S1133AD092230000F8260000402D0000002C000076
S1133AE0002C0000FC2B0000182D0000182D0000F5
S1133AF00A2D0000FC2B0000182D00000A2D0000E8
S1133B00182D0000FC2B0000202D0000202D0000AB
S1133B10202D0000242F0000F8B5C046F8BC08BCD6
S1133B209E467047DD000000F8B5C046F8BC08BCEE
S10B3B309E467047B500000039
S1133B38401F0000080000000101000010000020E0
S1133B480000000000000000000000000000000069
S1133B580000000000000000000000000000000059
S1133B680000000000000000000000000000000049
S1133B780000000000000000000000000000000039
S1133B880000000000000000000000000000000029
S1133B980000000000000000000000000000000019
S9030AB939
