S0140000737461725F747261636B65722E737265630B
S113000010210020290A0000250A0000250A00000A
S113001000000000000000000000000000000000DC
S1130020000000000000000000000000250A00009D
S11300300000000000000000250A0000250A00005E
S1130040250A0000250A0000250A0000250A0000F0
S113005041020000250A0000250A0000250A0000CC
S1130060250A0000250A0000250A0000250A0000D0
S1130070250A0000250A0000250A0000250A0000C0
S1130080250A0000250A0000250A0000250A0000B0
S1130090250A00000000000000000000250A0000FE
S11300A0250A0000250A0000250A0000250A000090
S11300B00000000010B5064C2378002B07D1054B37
S11300C0002B02D0044800E000BF0123237010BDC0
S11300D07000002000000000E8390000084B10B553
S11300E0002B03D00749084800E000BF0748036815
S11300F0002B00D110BD064B002BFBD09847F9E72D
S11301000000000074000020E8390000E839000015
S11301100000000070B5094B00209847FA21084CF4
S113012089000500A047074B074918602800A0472D
S11301300522064B1860064B1A6070BD9508000036
S1130140751400000000002040420F00040000204D
S113015010E000E030B580240021074B64021A68E7
S1130160064B013800D230BD002AFAD05A6099609B
S11301701D682542FCD0F4E70400002010E000E0F4
S113018030B580240021074B64021A68064B0138FD
S113019000D230BD002AFAD05A6099601D68254209
S11301A0FCD0F4E70000002010E000E0014B587898
S11301B0C009704700180040022310B5044A1178A2
S11301C00B431370034B98470028FBD110BDC04666
S11301D000180040AD010000402307B5104A052077
S11301E091690B439361002301A90B700D4B984750
S11301F00D4B0520984701230C4A11780B431370CB
S11302000B4B98470028FBD102000A4B1A500430CC
S11302104028FBD11022084B1A60084B984707BDB1
S113022000040040A50900001D090000001800405A
S1130230AD010000C400002000E100E0B9010000AD
S1130240002370B501250B4C237023780F2B00D9A4
S113025070BD29009940084A1069084206D011610E
S1130260064A9B009B58002B00D098472378013303
S11302702370EAE70401002000180040C4000020B5
S11302801D4B0221180030B54130996002781C00E2
S11302900A430270012059614034986022780A436D
S11302A02270164A08241500586163359460287832
S11302B0013D084368705461043C94602878084305
S11302C0287054618024E4035460287D0843287511
S11302D00B4890620B4890629461802218001202CD
S11302E05A604F30047821430170074999620749E5
S11302F099629A6130BDC046004400418044004187
S113030000000650400006D000800650000006D0D1
S1130310094B196800290BD1EFF31080074A002814
S113032005D172B6BFF35F8F0549087001211170C2
S11303301A6801321A6070478C0000209000002077
S113034008000020084B1A68013A1A601B68002B49
S113035009D1064B1B78002B05D00122044B1A70DF
S1130360BFF35F8F62B670478C00002090000020BE
S11303700800002003689A7A52B2002AFBDB0222AA
S113038019880A431A80704703689A7A52B2002A7D
S1130390FBDBC12202219A711A721A888A431A80DD
S11303A07047000070B50500064B046898472A683A
S11303B0937A5BB2002BFBDB012322881343238057
S11303C070BDC0468903000010B50268937A5BB221
S11303D0002BFBDB0379002B06D0012B01D0172067
S11303E001E01161002010BD034C1720A142FAD88E
S11303F089B21182F6E7C046FFFF00004279036824
S1130400002A0DD1104A5A8001688A7A52B2002A11
S1130410FBDB0279002A13D0012A0FD000200EE062
S11304205A885204F5D4C0215A8809020A435A80D2
S113043001688A7A52B2002AEBDAFAE7186970473F
S1130440188A80B2FBE7C0460080FFFF30B504681D
S1130450A37A5BB2002BFBDB0379002B0BD0012BBF
S113046001D01A2006E01720012A03D80632920090
S11304701151002030BD1720022AFBD8034DA94298
S1130480F8D80C3289B252001153F2E7FFFF000092
S11304902023F7B515002D4A0160916904000B4330
S11304A09361022301A90B700420294B984704206F
S11304B0284B9847284B20009847AB7823712B7919
S11304C06371264B1C602B8826683380AB78002B25
S11304D020D01720012B1CD133889BB23380EB78BA
S11304E0002B03D080233288134333802268937A0D
S11304F05BB2002BFBDB0022A9682000184B984755
S113050000202B79834204D080237288DB011343BB
S11305107380FEBD04233288172013433380EB78A5
S1130520002BF6D12268937A5BB2002BFBDB00220E
S1130530A96820000A4FB8472268937A5BB2002B5F
S1130540FBDB0122E9682000B847D9E7000400403A
S1130550A50900001D090000A503000008010020F2
S11305604D04000010230249CA681A42FCD07047A7
S11305700008004070B5082806D800F071FF08058F
S1130580053030120B1528000024200070BD164BD6
S11305901C69FAE7154B164C1B6A9B059B0FDC4044
S11305A0F3E7114B5C69F0E70F4D00242B689B07C0
S11305B0EBD5104B984724222B681340042B11D100
S11305C020000D4B9847AC68A4B24443DDE70B4BC5
S11305D000241B785B07D8D5034BDC68D5E780245F
S11305E02402D2E7064CD0E7940000200008004023
S11305F000127A0065050000C1090000500800409F
S1130600006CDC0270B584780278457801204026BD
S11306100540204080240849AD010B6AC001B34362
S11306202B43A34303430320024004481202034024
S113063013430B6270BDC04600080040FFFCFFFF7F
S1130640F8B5082806D800F00BFF1405050C0E1A9F
S1130650072034001720F8BD0223194A116A0B43FE
S113066013620020F7E70223154A91690B43936153
S1130670F7E70223124A118A0B431382F1E702239C
S11306800F4A918A0B439382EBE7022200240D4E1A
S11306900B4D33680C4F13433360AA84B847B368D7
S11306A0EB627368AB62AC84B84733689BB2AB84CB
S11306B0D7E70223054A11780B431370D1E7C046EC
S11306C00008004094000020650500004408004034
S11306D0C222234BD200F0B59A601E222149002485
S11306E04B6885B093431A00062313434B600123E0
S11306F001AD2B70E0B229001B4B01349847252C27
S1130700F8D100246B4601275C709F701C7068460A
S1130710164B9847164B06209847164B98470423C8
S113072029002B70144E1C3302206B606C702C72E9
S11307306C72B0470220114B9847114B29001C7270
S11307405C729C72DC72062320002B706F606C70EC
S11307502C726C72B0472000084B984705B0F0BD6E
S11307600008004000400041A50900000506000003
S11307704106000091070000B10700005508000081
S113078000040040014B5878C0097047000C004039
S11307900823054A91690B4393610123034A1370AB
S11307A011781942FCD1704700040040000C00404D
S11307B0F8B50C784B782402060005000443002B9E
S11307C002D08023DB021C434B7A002B02D080230F
S11307D01B031C434B68012B12D95D1E1D400222D2
S11307E0002D06D01D02802335439B0207E001350E
S11307F052009A42FBD380232D0235435B031C43F2
S11308000B7A002B02D080239B031C430C4FB84768
S11308100028FBD10B4B98470B4B1E70B8470028A0
S1130820FCD10A4B9D601D00B8470028FCD18022F2
S11308306B68520213401C436C60054B9847F8BD2B
S11308408507000011030000080C0040000C004064
S11308504503000070B50500094CA0470028FBD1F2
S1130860084B9847084B1D70A0470028FCD18023F3
S1130870064A5B0251680B435360054B984770BDB1
S11308808507000011030000040C0040000C004028
S113089045030000F7B50700184EB0470028FBD108
S11308A0174B9847174B1F700193B0470028FCD192
S11308B0154D164B6868C004C00E98470400019B90
S11308C01F706B68DB02DB0F0193114B1F70B04785
S11308D00028FCD1AD680F4B9847019B2D022D0CCD
S11308E0002B08D1012D04D9200029000A4B984778
S11308F004002000FEBD0135EC40FAE78507000046
S113090011030000040C0040000C004075050000B9
S1130910080C0040450300007514000010B50400E5
S1130920064B9847064B074A1C7080235188DB010D
S11309300B435380044B984710BDC046110300007D
S1130940020C0040000C00404503000010B50400F8
S11309500E4B98470E4B0F4A1C700F4B0F4C588888
S113096059880005114059805988000F2140598049
S113097011008022D2015C881442FCD15A88000202
S11309800A4002435A80064B984710BD11030000E9
S1130990020C0040FFF0FFFF000C0040FFBFFFFF10
S11309A04503000010B50C78034B24020443984718
S11309B0024BA4B25C8010BD4D090000000C004045
S11309C010B50400064B9847064B1C70064B5C8818
S11309D0064B2405240F98472000054B984710BD6B
S11309E011030000020C0040000C0040450300000D
S11309F0950800007047000010B5054B9847054B5B
S1130A009847054B9847054B9847054B984710BDA9
S1130A10D106000081020000F5090000D9010000A0
S1130A20F5090000FEE700002148224970B588421C
S1130A3004D00023204CCA18A24232D300211F4BF9
S1130A401F4A934231D3FF211E4B1F4A8B439360AD
S1130A5002220C25082430261C4B1D485A62C378F8
S1130A60FC398B431343C370C378AB432343C37034
S1130A70184B987BB0430600202030439873987B32
S1130A80A84304439C73987B884302439A7380234E
S1130A90114A51680B435360104B9847104B9847C9
S1130AA0FEE7C55804331560C5E702C3C9E7C0466D
S1130AB0E8390000000000207000002070000020D1
S1130AC00C0100200000000000ED00E0FC7000417B
S1130AD0005000410048004100400041A938000096
S1130AE0F10B000010B500280DD102230821154A8E
S1130AF09361154B59610739916104225A61134876
S1130B00134B984710BD012807D1022308210D4A31
S1130B1053610D4B99619061EFE7022809D10821D7
S1130B20084A094B506199610739516104229A615D
S1130B30E5E70328E3D102230821024A9361024B2B
S1130B405961F1E70044004180440041DC050000A4
S1130B5055010000F8B50024204A06001368032755
S1130B601B181360A04234DD1D4D2878032801D8DA
S1130B701C4B98472B680133032B18DC2B602B6824
S1130B80002B00DA2F600134A642EDD100221F248D
S1130B900120154D5159154E4B09DB019B190600D7
S1130BA021408E4004325E61102AF3D1F8BD002347
S1130BB0E4E70B4D2878032801D80A4B98472B68A3
S1130BC0013B032B08DC2B602B68002B00DA2F6021
S1130BD0013CB442EDD1D9E70023F4E7B000002092
S1130BE0B4000020E50A0000F03800000044004191
S1130BF0F0B5544B87B09847534B9847012302AA4A
S1130C009370A0230024514DDB0013805049514BB5
S1130C102800D470147104940594984728004E4B0E
S1130C20984721004D4B2800984728004C4B984783
S1130C3064204C4B984702204A4DA8474A4C2378DD
S1130C40002B01D1C820A8478022484FD2033B6A19
S1130C50474E1A40019205D18022336A1202C820FD
S1130C6013420CD18022336A12021A4001920DD130
S1130C7080223B6AD203134208D0C82040423D4B35
S1130C8098476B461B7932202370A84780223B6A21
S1130C90D203134211D18022336A120213420CD1BF
S1130CA0FA208000A847294E334D3000A847300071
S1130CB0A847324B1860012323702378002BBAD045
S1130CC0224D2D4C2800A0472800A0472B4B1B6821
S1130CD0C01A2B4B98472B4D2B4A2C4BA8472C4C16
S1130CE0A0472C4EB0472C4A2C4BA847A0472C4B6E
S1130CF0019018682B4B98472B4A2C4BA847A047C8
S1130D002B4B011C9847B0472A4F00222A4BB84767
S1130D102A4F02000B0000202949B847A047B047DA
S1130D20284B9847284A294BA847A047284B011C21
S1130D300198984727491E4B9847274B98470D4BD6
S1130D40984778E7F909000015010000B800002071
S1130D500014004091040000A5030000C903000032
S1130D607503000081010000AC00002080440041B4
S1130D7000440041550B0000FD030000C0000020AA
S1130D8039360000492A0000FCA9F1D24D62503FD7
S1130D904D370000A9360000E9A9C42BFF10713FAC
S1130DA0B0000020B5350000057C33C71FBA393FB9
S1130DB009160000E121000000F1CE40492F000097
S1130DC00000F03FDD0D000012143FC6DCA54C40CE
S1130DD049180000000048C2811B0000F0B54746D6
S1130DE0CE4680B58DB004000D0000F057F8274BB7
S1130DF0060098461B780F005BB2013331D0220005
S1130E002B002000290002F0B5FB8146002828D1E0
S1130E102000290000F018FB00221D4B00F0E0FB2D
S1130E2000281ED0012302931A4B1B4803934B4600
S1130E30069407950A930494059500F00BFB43462A
S1130E401B78089009915BB2022B11D002A800F024
S1130E50FFFA00280CD00A9B0193002B10D1089EA6
S1130E60099F300039000DB00CBC90469946F0BD86
S1130E7002F014FD212303600A9B0193002BEED0A2
S1130E8002F00CFD0A9B01930360E8E709000020CF
S1130E900000F03F0039000004390000F0B5DB4ADF
S1130EA04B0085B007000E005B0893420CDDD84A66
S1130EB094466344034300D0ACE0002900DC25E100
S1130EC00020002105B0F0BDD24A934200DC9BE033
S1130ED0002900DA1DE102000B000020CE4902F0D7
S1130EE033F80022CD4B01F0AFFD04000D0000F0FB
S1130EF0CBF9CB4A0F0000900191CA4B2000290086
S1130F0001F0A2FDC84AC94B00F05AFE22002B0092
S1130F1001F09AFDC64AC74B02F016F822002B00D6
S1130F2001F092FDC44AC54B00F04AFE22002B009A
S1130F3001F08AFDC24AC34B02F006F822002B00DE
S1130F4001F082FDC04AC14B00F03AFE22002B00A2
S1130F5001F07AFDBE4A02900391BE4B20002900A5
S1130F6001F072FDBC4ABD4B01F0EEFF22002B00E4
S1130F7001F06AFDBA4ABB4B00F022FE22002B00AE
S1130F8001F062FDB84AB94B01F0DEFF22002B00EC
S1130F9001F05AFD0022A04B00F012FE02000B00EB
S1130FA00298039901F01CF9009A019B01F04CFD91
S1130FB000260290039132003B003000390001F01A
S1130FC043FD02000B002000290001F0BDFF3200A8
S1130FD004000D00009801993B0000F0F1FD0200AF
S1130FE00B002000290001F0FBF802000B0002981E
S1130FF0039900F0E5FD32003B0000F0E1FD020042
S11310000B0000F0DDFD5DE7994A93420BDC994843
S1131010994957E702000B0001F096FF02000B000C
S113102001F0DEF84EE702000B0001F00DFD0400B4
S11310300D007B4A7B4B01F007FD7B4A7B4B00F0A4
S1131040BFFD22002B0001F0FFFC794A794B01F02F
S11310507BFF22002B0001F0F7FC774A774B00F06E
S1131060AFFD22002B0001F0EFFC754A754B01F037
S11310706BFF22002B0001F0E7FC734A734B00F076
S11310809FFD22002B0001F0DFFC714A00900191CA
S1131090704B2000290001F0D7FC6F4A6F4B01F020
S11310A053FF22002B0001F0CFFC6D4A6D4B00F082
S11310B087FD22002B0001F0C7FC6B4A6B4B01F04B
S11310C043FF22002B0001F0BFFC0022524B00F032
S11310D077FD02000B000098019901F081F83A00B5
S11310E0330001F0B1FC02000B006448644901F0D4
S11310F02BFF02000B003800310001F025FF020035
S11311000B005C485C4901F01FFFDBE659485D4970
S1131110D8E60022404B00F053FD00223F4B01F083
S113112093FC04000D003E4A3E4B01F08DFC3E4A08
S11311303E4B00F045FD22002B0001F085FC3C4AAB
S11311403C4B01F001FF22002B0001F07DFC3A4AE8
S11311503A4B00F035FD22002B0001F075FC384AB3
S1131160384B01F0F1FE22002B0001F06DFC364AF1
S1131170364B00F025FD22002B0001F065FC0090A9
S113118001912000290000F07FF8314A06000F0089
S1131190304B2000290001F057FC2F4A2F4B01F05F
S11311A0D3FE22002B0001F04FFC2D4A2D4B00F002
S11311B007FD22002B0001F047FC2B4A2B4B01F0CA
S11311C0C3FE22002B0001F03FFC0022124B00F072
S11311D0F7FC02000B000098019901F001F83200BD
S11311E03B0001F031FC254A254B01F0ADFE3200F5
S11311F03B0000F0E5FC02000B0000F0E1FC020003
S11312000B001C481F4901F09FFE5BE6FFFFEF3F08
S1131210000010C0FFFFDF3F0000F03F0000E03F90
S113122009F7FD0DE13D023F88B20175E0EF493F4A
S11312303B8F68B52882A43F5544880E55C1C93FE9
S11312407D6FEB0312D6D43F555555555555C53FC3
S113125082922EB1C5B8B33F59018D1B6C06E63F8F
S1131260C88A599CE52A00404B2D8A1C273A034022
S11312700000603C182D4454FB21F93F075C1433F3
S113128026A6913CFB2109406C4BF0B50A0046466A
S11312900D00D6464F461900C0B50400060029408B
S11312A0994200D1A7E0002D00DC81E02F1500D188
S11312B08EE0634B12039C468023120B5B0367444E
S11312C01A43FB0768D47B109C46E30F9B189B18BA
S11312D0802216210026002564009203A818984253
S11312E002DC85181B1AB618E00F5B0001391B18C5
S11312F0640052080029F1D10022924690468022CF
S11313002020120609E0AB4238D0E10FC918013899
S1131310CB1864005208002818D041465118AB423B
S1131320F1DD8F18B846A946002930DB5B1B8C42DF
S1131330AD416D425B1B641AE10FC9180138924438
S11313404D46CB18640052080028E6D1234328D127
S113135053465B083B49721088464244F10702D564
S1131360802109060B4361461E000F05BD1830009D
S113137029001CBC90469946A246F0BDA142C4D89F
S11313808F18B846002942DB99460023D3E7002F83
S11313902FDB6F1CB946C9E7E10F52008A186400BD
S11313A091E75346013335D0534601335B08D1E707
S11313B06B005B080343DAD00027002D32D1E20A28
S11313C0153F6405002AFAD080235B031A4224D116
S11313D080200023400300E00B005200591C02420D
S11313E0FAD02020401AFF1A2300C3408C401A432D
S11313F05FE7A9469AE72B000200290001F024FBCD
S113140032002B0000F0DCFB06000D00AFE7002FDC
S1131410BFDAB9E7013600239CE70123002120202D
S11314205B42E0E72B000200290001F08DFD020081
S11314300B0000F0D5FE06000D0098E70000F07FD9
S113144001FCFFFF0000E03F49004B081900704712
S113145000207047002001497047C0460000F87F13
S113146002B4714649084900095C49008E4402BC33
S11314707047C046002243088B4274D303098B4251
S11314805FD3030A8B4244D3030B8B4228D3030C50
S11314908B420DD3FF22090212BA030C8B4202D3F2
S11314A01212090265D0030B8B4219D300E0090A1A
S11314B0C30B8B4201D3CB03C01A5241830B8B4223
S11314C001D38B03C01A5241430B8B4201D34B030C
S11314D0C01A5241030B8B4201D30B03C01A524171
S11314E0C30A8B4201D3CB02C01A5241830A8B42F6
S11314F001D38B02C01A5241430A8B4201D34B02DF
S1131500C01A5241030A8B4201D30B02C01A524142
S1131510CDD2C3098B4201D3CB01C01A52418309F6
S11315208B4201D38B01C01A524143098B4201D330
S11315304B01C01A524103098B4201D30B01C01A5B
S11315405241C3088B4201D3CB00C01A52418308D5
S11315508B4201D38B00C01A524143088B4201D302
S11315604B00C01A5241411A00D201465241104662
S11315707047FFE701B5002000F006F802BDC04641
S11315800029F7D076E770477047C0468446101CA0
S113159062468C46191C634600E0C0461FB501F044
S11315A0F1F9002801D40021C8421FBD10B501F093
S11315B04BF94042013010BD10B501F0E3F90028A9
S11315C001DB002010BD012010BDC04610B501F0A4
S11315D0D9F9002801DD002010BD012010BDC0464E
S11315E010B501F06BF9002801DC002010BD0120CA
S11315F010BDC04610B501F061F9002801DA0020E1
S113160010BD012010BDC046F8B557464E464546AC
S1131610DE46E0B54702460088467F0A360EC40F10
S1131620002E47D0FF2E24D0FB008027FF041F4349
S1131630002399469A467F3E43465D025800DB0FDD
S11316406D0A000E984643D0FF283BD0EB0080255E
S11316500022ED041D437F383618731C41469B4617
S11316604B46614013430F2B64D875489B00C35805
S11316709F46002F42D108239946063BFF269A46EF
S1131680DAE74146022A28D0032A00D1CEE0012A13
S113169000D0ACE0114000200022CCB24002D205C0
S11316A0400AE407104320433CBC90469946A246B6
S11316B0AB46F8BD002F15D104239946033B002601
S11316C09A46B9E7FF200222002DC5D00322C3E7C2
S11316D0002D19D100200122BEE70124FF220C4075
S11316E00020DBE7380002F0BBF87626431F9F405A
S11316F000237642361A99469A469DE70C2399466A
S1131700093BFF269A4697E7280002F0A9F8431FF1
S11317109D4076235B42181A00229DE78020002416
S1131720C003FF22BAE73D005246ABE73D0021006B
S11317305246A7E73B0C9C462A04120C2B0C1400BF
S1131740604665463F043F0C7C4342435D437B4314
S1131750270C9B18FF18BA4203D980235B029C46CE
S1131760654424043A04240C121993015C1EA34119
S11317703F0C920E7D191A43AD0115432B0104D57C
S113178001235E466A081D40154332007F32002A59
S113179025DD6B0704D00F232B40042B00D0043528
S11317A02B0103D53200274B80321D40FE2A94DCE6
S11317B00124A801400AD2B20C406FE78020C00384
S11317C0074207D0054205D128434002400A444657
S11317D0FF2263E738434002400AFF225EE7012408
S11317E0A31A1B2B05DD0C400022002056E75E46A1
S11317F0CBE72A002020DA40C31A9D402B005D1E4F
S1131800AB4113435A0704D00F221A40042A00D0D4
S113181004335A0104D5012401220C4000203DE781
S113182001249B01580A0C40002237E78020012440
S1131830C00328434002400A0C40FF222EE7C04662
S113184008390000FFFFFFF7F0B54F46D64646467D
S11318504400C0B5C20F47024802400A84466646A7
S11318607B0A4800C90F9A46240E1500DB00000EBF
S11318708946F600FF2800D18FE001214F464F40F2
S11318803900914266D0221A002A00DC9DE000282B
S11318903DD1002E00D18BE0511E002900D0B5E0CF
S11318A001249B1B5A0144D59B019F09380001F078
S11318B0D7FF05388740844200DD96E0041B3A00D8
S11318C020200134E240041BA7403B005F1EBB41C3
S11318D0002413435A0704D00F221A40042A00D0CC
S11318E004335A0127D50134FF2C00D179E00122B9
S11318F09B015B0AE4B22A405B02E405580AD20762
S1131900204310431CBC90469946A246F0BDFF2CD0
S1131910E0D08021C9040E431B2A7BDC3100202047
S1131920D140821A9640721E96410E439B1B5A0167
S1131930BAD45A07D0D10122DF082A40FF2C33D170
S1131940002F00D1A8E08023DB033B435B025B0A4A
S1131950FF24D1E7211A00294CDD00282AD0FF2CCE
S1131960B8D08020C00406431B2900DDAFE030005E
S11319702027C840791A8E40711E8E4106439B1958
S11319805901D6D50134FF2C00D185E001227A49D2
S11319901A405B080B4013439CE7002E00D070E70D
S11319A06BE73B1EC5D100227B025B0AE4B2A3E7CE
S11319B014008FE7002E4DD0481E002857D19B19E4
S11319C001245A01B5D50224E0E7002A25D1621C7E
S11319D0D2B2012A72DD9F1B7A0135D5F71A0D00A8
S11319E064E7012200232A4086E73B00634A241A65
S11319F013406FE700296CD1611CC8B201284EDD89
S1131A00FF2949D09B195B080C0063E7FF2A41D0EA
S1131A100A0081E701269B1B89E7002C1CD0FF28C4
S1131A2021D08024E404524223431B2A00DD96E0A3
S1131A301C002025D440AA1A93405A1E93412343E4
S1131A40F31A04000D002DE7002F00D02EE700222A
S1131A500024A9E70C003DE7002B58D0D243002A0C
S1131A60EED0FF28E1D13300FF240D0032E7FF2937
S1131A7010D0010078E7002B6ED0FF24002E00D197
S1131A8028E780225146D203114203D06146114215
S1131A9000D13300FF241DE7FF2400232CE7002C92
S1131AA0E9D1002B63D0002E00D113E79B195A0112
S1131AB000D43EE7314A0C0013400BE7002C1ED142
S1131AC0002B2FD1002E4FD033000D0002E701264A
S1131AD055E7002C1FD1002B43D0C94300290BD05C
S1131AE0FF2839D01B2944DC1C002027CC40791A5C
S1131AF08B40591E8B4123439B19040040E7002B64
S1131B001AD1002E24D180270022FF031BE73300C3
S1131B1004000D00DEE6FF281ED08024E4044942C0
S1131B202343DFE7002E00D1D4E69F1B7A0100D4C3
S1131B3037E7F31A0D00CDE6FF24002E00D1C9E6E5
S1131B4080225046D2031042A4D060461042A1D154
S1131B5033000D00FF24BDE63300FF24BAE6012361
S1131B606EE733000400B5E6002700221CE73300CB
S1131B70B0E60123C0E7C046FFFFFF7DFFFFFFFB88
S1131B8041024300C20F490A1B0E00207E2B0DDDCB
S1131B909D2B0CDC802000040143952B0ADC96204D
S1131BA0C31AD9404842002A00D108007047034BA9
S1131BB0D018FBE7963B9940F4E7C046FFFFFF7F50
S1131BC0F8B54546DE4657464E460C03E0B54E0092
S1131BD0C90F88460D00610A440F0C43C70019035E
S1131BE05800DB0F9B464B0A510F0B43760D400DFB
S1131BF01900D200D84500D1AEE0351A002D00DC22
S1131C00F6E000280FD1134300D1DBE06B1E002B5C
S1131C1000D037E1BA1A9742BF41641A7F42E41BED
S1131C200126170024E0C64B9E424DD080231B049E
S1131C301943382D00DD07E11F2D00DD38E1202098
S1131C40431B9A460B00504683409946130048466E
S1131C50EB401843030050468240501E8241E94045
S1131C601A43BA1A611A9742A441170064420C1B22
S1131C70230262D56402650A002D00D1DFE028004A
S1131C8001F0EEFD0300083B1F2B00DDD2E0202213
S1131C903C00D21A9D40D4409F4025439E4200DD23
S1131CA0C4E09E1B731C1F2B00DDF1E020223800D2
S1131CB02900D21AD840914097402C000143781E45
S1131CC08741DC4000260F437B0709D00F233B40AC
S1131CD0042B05D03B1DBB42BF417F42E4191F00CA
S1131CE023022CD5964B01369E4200D19AE04546FC
S1131CF0944BFF081C406007760564020743240BDD
S1131D00760D00212403230B0C0D8F4A24051C435C
S1131D101440330523435B00ED075B082B43380075
S1131D2019003CBC90469946A246AB46F8BD6446B1
S1131D30044300D111E2040067467B07C6D145463F
S1131D406007FF080743E4087D4B9E4230D024031C
S1131D507605240B760DD4E7331A9A46002B78DDEA
S1131D60002831D076488642AED08020000401435A
S1131D705346382B00DCE9E00A43511E8A41002116
S1131D80D219BA42BF4109197C4217000C19230227
S1131D90D3D56B4B01369E4200D13AE10120694B09
S1131DA01C407B0807401F43E007074364088BE798
S1131DB023003B4300D1CBE18022120314432403CC
S1131DC0240B9EE72E007FE70800104300D1B4E007
S1131DD0581E002800D0DEE0BA18BA429B416418AD
S1131DE05B42E418170001262302A6D50226D5E794
S1131DF0002D6ED1701C4005400D012800DCF9E077
S1131E00B81A844687428041E51A40422D1A2802B6
S1131E1000D489E0D71BBA4292411C1B5242A51A36
S1131E20D84629E74546002400276AE7454CF61AB8
S1131E302C4049E73D002838854000272EE738002C
S1131E4001F00EFD20301DE70A43511E8A41002196
S1131E5007E7002B00D0F3E0701C43055B0D012B5A
S1131E6000DCADE0364B984200D1D1E0BA18BA425A
S1131E70BF4164187F42E419E70752081743640816
S1131E80060021E72E48854200D193E01D00D0E6EC
S1131E9029001F3EF140202B00D18DE04022D31AAF
S1131EA09D402F437D1EAF4100240F43002644E78D
S1131EB02B000800203BD8400300202D00D17DE0FA
S1131EC04020451BA9400A43511E8A4100211A4360
S1131ED0C7E6002E50D01A4EB04257D080266B422F
S1131EE09946360434434B46382B00DDD6E01F2B8D
S1131EF000DD35E12026F51A2600AE40B2463E004C
S1131F00DE40AC46350056462E436546AF407D1E46
S1131F10AF41DC403743D71BBA4292410C1B5242BB
S1131F20A41A0600D846A3E6644667462C4300D0AC
S1131F30A2E600250026002706E71E00C4E6C046E8
S1131F40FF070000FFFF7FFFFFFF0F801F2B63DCF5
S1131F502020C31A080098409C468346534610002C
S1131F60D84003005846184363469A40531E9A418A
S1131F7053460243D94003E726003E4306D0EB43D1
S1131F809946002BC7D0944EB042ACD10C00170038
S1131F900600D84698E6904B9A450BD08246E7E671
S1131FA0002800D09EE01800104300D1E9E01C0096
S1131FB01700D846884E87E6002572E7002182E79D
S1131FC023003B43002E00D0ABE0002B00D1E7E020
S1131FD00B00134300D177E6BA18BA42BF41641824
S1131FE07F42E419230200D4F2E07C4B17001C402A
S1131FF0060069E620003843002ED1D100285BD1C9
S11320001C00144300D1A8E01C001700D8465BE66E
S113201006000024002797E650460B002038C340F2
S113202099465346202B00D195E0402350461B1A75
S113203099400A43511E8A414B4600211A439FE6A8
S1132040002E30D126003E4367D0DB439A46002B56
S11320501CD0614EB04260D05346382B00DD96E070
S11320601F2B00DD9FE02026F31A26009E409C468D
S1132070B34653463E00DE4033005E461E4363468D
S11320809F407B1E9F415346DC403743BF18974215
S1132090924164185242A418060078E627437C1E35
S11320A0A741002437E74C4EB04236D080265B422D
S11320B036049A463443CFE71800104300D103E6B0
S11320C0B81A84466745AD41E01A6D42401B0502CB
S11320D000D42CE6D71BBA4292411C1B5242A41ACC
S11320E0D846F1E51800104300D163E7F808670704
S11320F007438020E4080003044208D0DD080542B9
S113210005D1D208590711430F002C00D8467B0F84
S1132110E4001C43FF00304ED6E50C001700060017
S1132120D2E5002B38D00B00134300D142E7F80866
S1132130670707438020E40800030442E7D0CB0884
S11321400342E4D1D208490711430F001C00DEE723
S113215000270024D5E500216BE700250027F3E5DF
S11321604E462500203EF5404B462E00202B2DD018
S11321704025ED1AAC4027437C1EA7410024374379
S1132180C9E6802400252403134E0027DCE52743F9
S11321907C1EA741002479E70C0017000E4E93E53E
S11321A00C00170090E556462300203EF340994664
S11321B05346202B0ED0402356469B1B9C4027435E
S11321C07C1EA7414B4600241F435FE70024D2E74F
S11321D01700B2E50024F2E7FF070000FFFF7FFFCE
S11321E0F0B557464546DE464E46E0B54C000E0374
S11321F087B0834692461D008046360B640DCF0F90
S1132200002C4FD06F4B9C4235D08023420F1B04CF
S1132210F600134333439946C30098466A4B00269D
S11322209C460023644403932B031B0B9B466B00C7
S1132230ED0F50465B0D01955ED0624A934253D038
S11322405A46D1008022400F120402430A439346A7
S11322505246D1005C4A94460022634438006840E8
S113226084460290E41A16430F2E00D9B4E0574B6B
S1132270B6009B599F460300334399466CD1002313
S11322809846023308260393CEE7CB464146039A89
S11322900197022A65D1019B4A4C9C4600230022E7
S11322A098466BE00300334399464ED0002E00D18C
S11322B0BCE1300001F0D4FA03000B3B1C2B00DD21
S11322C0ACE11D22D31A5A460100DA4008398E4087
S11322D01300334399465B468B40984600233C4C9D
S11322E00026241A03939FE751465A46114329D1E5
S11322F0002293460232B1E7594601431ED05B46A1
S1132300002B00D19EE1584601F0AAFA03000B3BD2
S11323101C2B00DD8FE102005946083A91408B46A0
S11323201D21CB1A5146D9400B0059460B43514647
S11323309B469140264B00221B1A8FE70023012263
S11323409B468BE75146032288E7002398460133D6
S113235004260024039367E70323B14603930C2662
S113236062E7032A00D15CE2019B012A00D0E4E188
S113237013409C46002300240022984600211203A7
S1132380130B0A0D12051A432305124C4046224032
S1132390134362465B00D2075B081343190007B07E
S11323A03CBC90469946A246AB46F0BD0023802231
S11323B09C4612039846034CE0E70023014C00229C
S11323C09846DBE7FF07000001FCFFFF48390000E7
S11323D00DFCFFFFFFFF0F80D94500D939E100D183
S11323E034E1002346464D469A46013C5B460A0EBC
S11323F01B021A430B02170C039313041B0C390022
S1132400280090460193FFF735F80200019B8346AC
S11324105A43280039009146FFF7B2F8350C0904F5
S11324200D43A9450DD95B464544013BA84500D958
S11324303AE1A94500D837E102235B429C46454472
S1132440E3444B46EB1A390018000493FFF712F8E3
S1132450019B05004343390004989946FFF790F81F
S1132460330409041B0C0B43994509D943446A1EE0
S1132470984500D91AE1994500D817E1023D434433
S11324804A469B1A5A4612042A4303999346100C4F
S11324900A0C914609045A46090C4E460D001204D2
S11324A0120C4543059151437243704352190E0C6B
S11324B0B218954203D980256D02AC466044150CD0
S11324C009041204090C28185218834200D2CEE0E1
S11324D000D1C8E01D1A53469E1AB2459241524299
S11324E0AB1A9A46984500D117E139001800FEF757
S11324F0C1FF019B05004343390050460493FFF795
S11325003FF804980B04310C1943884209D941441B
S11325106B1E884500D907E1884200D804E1023DDA
S11325204144049BCB1A180039000493FEF7A2FF20
S1132530019B82464343390004980193FFF720F836
S113254001980B043104090C194388420DD95346F0
S11325504144013B884500D9E8E0884200D8E5E0E1
S113256002235B429C464144E244019B2D04CE1A63
S113257051462943059D4F462A000B04080C1B0CA9
S11325805A4345437B4378435B19170CFB189D4220
S113259003D980256D02AC4660441D0C12041B0453
S11325A0120C28189B18864200D293E000D18EE0CA
S11325B001231943A04BE318002B00DC99E04A07E0
S11325C000D09EE05A46D20106D55A469B4B1A408B
S11325D080239346DB00E318994A934268DD012384
S11325E0029A984C1A400023944698460022C5E665
S11325F080224B46120313420AD05B46134206D193
S11326001A431203120BAC4688468E4CB6E64B4670
S11326101A431203120BBC468A4CAFE603005A4617
S1132620283B9A4000239146984657E6584601F0C5
S113263017F9203040E603005246283B9A40002117
S1132640934677E601F00CF920305FE6884500D226
S1132650C7E64B46DE075D0843465B081E43434618
S1132660DB079A46C2E60025924500D333E7039E72
S11326705946B446E244B245AD416D424544EB1877
S11326800139984507D2984200D97FE000D1BCE0D7
S11326901D1A8B461FE79845FAD1039D5545F2D97B
S11326A043468B461D1A16E79B46CAE61500E7E625
S11326B05A46C90852070A435B0590465C0D5A46C0
S11326C00123029952021940120B8C4656E6002B44
S11326D000D16FE746444A1EB04529D9110086420D
S11326E000D065E7039A934200D061E762E70121D5
S11326F049420120C21A382A21DD029B03409C462C
S113270038E60F220A40042A00D15BE70A00111DB3
S1132710914292415242934454E7474BE318002BB1
S1132720E5DD01225242F2E71D00FAE69A461CE773
S1132730B04239D86ED011003AE702933AE71F2A23
S11327403CDC20239B1A0C005846994098404B1EB1
S113275099415B46D440D340204308431A004307C1
S113276009D00F230340042B05D00100081D884223
S11327709B415B42D21813023AD50123029A0124E9
S11327801A400023944698460022F7E50221494264
S11327908C46039DE344AC46E244AA45AD416D42F8
S11327A04544ED182D1A96E68A1E03994D008D4274
S11327B0894149424144761803958FE71F204042DE
S11327C0C31A5846D8400300202A28D040205D462A
S11327D0821A954029434A1E914119430723002236
S11327E00B4009D00F2300220B400800042BBDD15D
S11327F0010053075202120BC908194301238846EA
S11328000299002419408C46B8E55245BED88B463F
S1132810002560E6039D9D42C6D3110062E70025B2
S1132820D8E780225B4612031A43019B1203120B62
S11328309C468846034CA1E5FF030000FFFFFFFE12
S1132840FE070000FF070000F0B54F464646D64697
S11328505C00C0B51F03DB0F9A46174B0E034D00F7
S113286084468046360B6D0DC90F91463F0B640DAF
S113287001209D4208D09C4201D0A5420BD01CBC33
S113288090469946A246F0BD63463343F7D1AC4225
S1132890F5D13A43F3D10120BE42F0D1C845EED17F
S11328A0514507D0002DEAD163461E433000461E31
S11328B0B041E4E70020E2E7FF070000F0B5454639
S11328C0DE4657464E46E0B51F033D0B2C4F0E0324
S11328D04C00AB465D008446360B640DC90F904630
S11328E06D0DDB0FBC422AD0254FBD422DD0002CEC
S11328F00FD130430700814678427841C0B2002DA1
S113290017D15F463A4314D14B460020002B0AD01E
S113291006E0002D02D15846024301D0994218D056
S11329204842012108433CBC90469946A246AB4626
S1132930F0BD0028F2D00120013B1843F3E7370033
S11329400743D1D002204042EDE75F461743CED083
S1132950F8E7AC42E4DC03DA481E01210843E2E76D
S11329605E45DDD806D000205E45DCD20123481E3A
S11329701843D8E7C445D3D80020C445F6D3D2E7DA
S1132980FF070000F0B54E464546DE4657465C005C
S1132990E0B51F03DB0F99462A4B0E034D00C90F08
S11329A08446360B6D0D8B4690463F0B640D9D425D
S11329B020D0244B9C4222D0002D12D130434342DC
S11329C04341DBB2002C1FD0002B0CD04B4601201E
S11329D0013B034318003CBC90469946A246AB46D3
S11329E0F0BD002C16D0CB4517D05B4659420123CD
S11329F00B43EFE7310002230143EBD1D9E7390060
S1132A0002231143E6D1D7E73A43DDD1002300285E
S1132A10E0D0EAE73A43E6D1E7E7A542E5DC05DBA7
S1132A20BE42E2D807D00023BE42D3D25946012386
S1132A3001390B43CEE7C445D7D80023C445F5D3A9
S1132A40C8E7C046FF070000F0B557464546DE46D6
S1132A504E46E0B50C0398464E00230B87B00700A2
S1132A6092469B46760DCD0F002E6BD06D4B9E4249
S1132A7035D080245B46420F2404DB0014431C43FE
S1132A80C3009946684BA3469C460023002766442E
S1132A90029343461C035A00DB0F5046240B520D8D
S1132AA0984600D176E05F4B9A426DD08023410F67
S1132AB01B040B435C49E4008C461C43C300002008
S1132AC062444146B6186940721C0191944607431A
S1132AD00F2F00D9B0E0554ABF00D25997465B4644
S1132AE00343994600D087E000239B46023308271E
S1132AF00293CEE742460192022867D0032800D110
S1132B000EE2012800D062E100230024002299464D
S1132B1001990140CDB2002112030B0D120B1B05CC
S1132B201343434A240513401C436400ED0764081F
S1132B302C434846210007B03CBC90469946A24627
S1132B40AB46F0BD034399464FD05B46002B00D102
S1132B5089E1584600F084FE03000B3B1C2B00DD8A
S1132B607AE11D22D31A3A0001005C46DA400839A2
S1132B708C4013008F4023439B46B94600232D4EBF
S1132B800027361A029384E7534623432AD10024AC
S1132B90022096E75346234320D0002C00D157E16E
S1132BA0200000F05DFE03000B3B1C2B00DD49E11F
S1132BB01D21CB1A51460200D9405346083A94408D
S1132BC093400C431B4A121A00207AE70125019B0B
S1132BD0144C1D400023002299469CE70024002247
S1132BE001206EE7534603206BE700239B46013325
S1132BF00427002602934CE7032381460C27029303
S1132C0047E780220023002512039946054C82E7FA
S1132C105C464B4602986FE75C464B46019502982A
S1132C206AE7C046FF07000001FCFFFF8839000087
S1132C30FFFF0F800DFCFFFF4A464946170C1A0C94
S1132C401B041B0C08041900000C414315008846A2
S1132C5019007D43794303958946290015004543AE
S1132C604D44029545462D0CAA46029D5544A9455E
S1132C7006D98A46802149028946CA4451460391AD
S1132C80290C0491414609042D04090C88462900A5
S1132C90250C24044144240C059121004143884619
S1132CA0210079438A466843414650448146080CD2
S1132CB048446F43824503D98021490289464F44E1
S1132CC0010C894639004944029141460F04049994
S1132CD03F0C88460004C01980444146049159467B
S1132CE00F0C0904090C884659438A46390051439C
S1132CF0894641464A435146090C8B467B43D218C8
S1132D005A44934203D980235B029B46D9445146DB
S1132D100904090C8A46414661437C43130C12049E
S1132D204B445244A1468A463C0041466C434D43C1
S1132D3051464D440F0C7D19A94503D98021490200
S1132D4088464444049F0399B84641448B468345CE
S1132D50804141428846514608042F04000C3F1824
S1132D605846029910188946904292414F44BA46F7
S1132D70524299469346C244D144CB448F42BF4108
S1132D80C245894199459B41934592417F424942BD
S1132D902D0C52420F435B4213437F19FF185B46CD
S1132DA03C19DB0D059A64021C43430213435D1E68
S1132DB0AB415A46C00D034352021343E20156D5B8
S1132DC001205A0803401343E207134364085A4896
S1132DD0604400284DDD5A0709D00F221A40042A06
S1132DE005D01A1D9A429B415B42E4181300E2018C
S1132DF004D58020514AC00014406044504A904297
S1132E0000DDE3E60125DB0862071A436402019B47
S1132E109146220B4405640D1D407CE680225946F0
S1132E201203114208D0144206D122431203120B9A
S1132E3045469946434C6EE65B461A431203120B11
S1132E40404C68E603005446283B9C400023B9E606
S1132E5000F006FD2030A6E60300283B9F40002337
S1132E60BB4699468AE600F0FBFC203074E6B44683
S1132E70ADE701252A1A382A06DD019B00241D40EE
S1132E8000230022994646E61F2A21DC2025200043
S1132E90AD1A1E00AB40A840D6405D1EAB41304386
S1132EA01843D440430709D00F230340042B05D013
S1132EB00300181D98429B415B42E418230221D56C
S1132EC00125019B01241D4000230022994622E68E
S1132ED01F2521006D42281AC1400800202A1DD058
S1132EE05F35AA1A944023435C1EA341072503437C
S1132EF01D400022002D09D00F2200241A40180082
S1132F00042AD6D1030065076402220BDB082B4395
S1132F1001259946019B00241D40FCE50024E2E7BD
S1132F20802201251203224301991203120B0D4042
S1132F309946044CEFE5C046FF030000FFFFFFFE87
S1132F40FE070000FF070000F0B54646D6464F4690
S1132F500C03C0B5CD0F4E00610A440F0C43C100F1
S1132F605800400D84468A460F001903500F490A41
S1132F700143C648760DA846DB0FD200844500D134
S1132F80D8E001204340AB4200D1A6E06046351AA8
S1132F90002D00DC05E1002810D10B00134300D103
S1132FA0D7E06B1E002B00D04BE153469F1ABA4565
S1132FB08041641A4042241A01261EE0B34B9E420B
S1132FC048D080231B041943382D00DD19E11F2D3F
S1132FD000DD4CE120230F005B1B10009A409F4052
S1132FE0E840531E9A41E940074317435346DF1B09
S1132FF0611ABA45A44164420C1B230200D4C5E003
S11330006402650A002D00D1F6E0280000F028FCD7
S11330100300083B1F2B00DDE9E020223C00D21A0C
S11330209D40D4409F4025439E4200DDDBE09E1B33
S1133030731C1F2B00DD0AE120223800D21A29005C
S113304097402C009140D8407A1E9741DC400026DE
S113305001430F437B0709D00F233B40042B05D0CA
S11330603B1DBB42BF417F42E4191F00230225D50B
S1133070864B01369E4200D1AFE0854B01251C40B2
S113308043466207FF08640276051743240B760D56
S11330901D4000212403230B0C0D7E4A24051C43F0
S11330A01440330523435B00ED075B082B433800D2
S11330B019001CBC90469946A246F0BD0125434622
S11330C06207FF081743E4081D40704B9E4236D048
S11330D024037605240B760DDBE76346F31A002BF5
S11330E000DC94E06046002835D068488642B1D0C0
S11330F080273F043943382B00DCFDE00A431700E6
S113310000217A1E9741574457458041091944428A
S11331100C1923023AD55D4B01369E4200D14BE196
S113312001225B4B1C407B0817401F43E2071743F7
S113313064088FE70800104300D024E721E7230048
S11331403B4300D1B9E18022120314432403240B2E
S11331509FE72E007EE70800104300D1CAE0581E06
S11331608446002800D0E7E0524452458041641868
S11331704042241817000126230207D50226CFE770
S113318064462C4300D1B3E12C0067467B0700D092
S113319062E76307FF081F4301254346E4081D4017
S11331A093E7002D78D1751C6D056D0D012D00DCA4
S11331B0F2E05046801A8245BF41651A7F42ED1BFA
S11331C08446280200D48CE05046171ABA42924131
S11331D00C1B5542651B984614E701254346002401
S11331E01D40002755E72A4CF61A2C4032E73D00D3
S11331F028388540002717E7380000F031FB2030DD
S113320006E70A43170000217A1E9741EEE6002BD9
S113321000D0E5E0731C9C465B055B0D012B00DCD4
S11332209FE01A4B9C4500D1C5E052445245804171
S1133230641840422418E707520817436408664696
S113324008E71248854200D185E01D00BCE629004C
S11332501F3EF140202B00D17FE04022D31A9D4035
S11332602F437D1EAF4100240F4300268EE72B0021
S11332700F00203BDF40202D71D040235D1BA9406F
S11332800A43511E8A4100211743AFE6FF0700009D
S1133290FFFF7FFFFFFF0F80002E3ED0B34EB445EB
S11332A045D0802636046D423443382D00DDA8E035
S11332B01F2D00DD1FE1202627005046761BB74056
S11332C0E84007435046B040461EB041EC40384306
S11332D0171ABA4292410C1B5242A41A66469846E7
S11332E08BE6644667462C4300D08BE60025002617
S11332F00027EAE61E00ADE61F2B60DC2027F81A43
S11333000F00844687401000D8400743604682403F
S1133310501E8241D9401743F5E626005046064325
S113332005D0ED43002DD3D0904EB445BDD10C0053
S11333301700664698468DE68C4883420BD0634658
S1133340D9E6002D00D096E00800104300D1E2E059
S11333500C0017009846854E7CE6002580E7002186
S11333608EE7230050460343002E00D0A8E0002B34
S113337000D1DEE00B00134300D16BE6524452450A
S113338080416418404224181700230200D4FDE64B
S1133390774B66461C405DE6250050460543002EEB
S11333A0CFD1002D4FD10C00144300D1A0E00C006C
S11333B0170098464EE666460024002785E61F005F
S11333C00800203FF8400700202B00D18EE0402069
S11333D0C31A99400A43511E8A410021174392E6B9
S11333E0002E14D126005046064362D0DB43002B46
S11333F05CD187189742924164185242A4186646D9
S113340087E650462043441EA041002460E7574EFF
S1133410B4454ED0802636045B423443382B00DD5D
S11334207FE01F2B00DD8BE0202627005046F61A94
S1133430B740D84007435046B040461EB04107430A
S1133440DC40BF18D6E70D00154300D102E6504614
S1133450801A8245BF41651A7F42ED1B84462802CB
S113346000D48DE65046171ABA4292410C1B5242C0
S1133470A41A9846EEE50D00154300D16BE75046BB
S11334806707C00807438020E4080003044207D00C
S1133490CD08054204D12C009846D70849070F43AC
S11334A07B0FE4001C43FF00304ED3E52F4EB445A0
S11334B0B4D10C0017006646CCE500270024E8E5EB
S11334C0002B39D00B00134300D144E7C008670731
S11334D007438020E40800030442E1D0CB08034200
S11334E0DED1D70849070F431C00D9E7002171E753
S11334F000250027E9E52E002700203EF740202D77
S11335002FD04026751BAC4050462043441EA0419A
S113351000243843DCE6802400252403134E0027CE
S1133520D3E5504620430700781E87410024BF1886
S113353060E70C0017008DE50C0017000B4E89E5C1
S11335401E002700203EF740202B0CD04026F31A03
S11335509C4050462043441EA04107430024BF180A
S113356048E70024D0E70024F3E7C046FF07000043
S1133570FFFF7FFF70B50E4E0D031C0349005B0077
S11335802D0B490D240B5B0DB14204D008490020DA
S11335908B4208D070BD05430120002DFAD10449A7
S11335A000208B42F6D114432000441EA041F1E7D1
S11335B0FF07000070B5002830D0C317C4185C4062
S11335C0C50F200000F04CF9174B184A1B1AD21AE9
S11335D01F2A18DD164AD21A9440002224035B05E0
S11335E0240B5B0D0021100024030A0D240B12058B
S11335F02243104C1B05224013435B00ED075B087C
S11336002B43190070BD210091400A000B21081AB8
S1133610C4405B052403240B5B0DE3E70025002372
S113362000240022DEE7C0461E040000330400002C
S113363013040000FFFF0F8010B5041E28D000F013
S11336400FF9154B154A1B1AD21A1F2A15DD144AF5
S1133650D21A9440002224035B05240B5B0D002145
S1133660100024030A0D240B120522430D4C1B05E4
S1133670224013435B00590810BD210091400A0009
S11336800B21081AC4405B052403240B5B0DE6E7F9
S1133690002300240022E2E71E040000330400009B
S11336A013040000FFFF0F804100090E4B1C70B58E
S11336B0DBB24602750AC40F012B14DDE0239B0024
S11336C06D07360BCB1800210A0D280012051C4D7E
S11336D032435B052A405B0813435B00E4075B0845
S11336E02343190070BD002914D1002D1ED02800D9
S11336F000F0B6F80A281CDC0B232A001B1ADA4057
S1133700030015339D400F4B12031B1A5B05160B68
S11337105B0DD8E7002D06D0320B802636036D07EB
S11337201643094BCFE7084B0026CCE700230026BD
S1133730C9E703002A000B3B9A400025E3E7C04693
S1133740FFFF0F8089030000FF070000F0B54C0065
S1133750640D0B03621C450F5B0A52052B43C90F12
S1133760C500520D012A28DD3A4AA618FE2E1BDC9C
S1133770002E3EDD80010200501E82416D0F2A435F
S1133780DB0013435A0704D00F221A40042A00D046
S113379004338022D2041A405AD00136FF2E03D0BB
S11337A09B015B0AF4B201E0FF2400235802E40504
S11337B0400AC90720430843F0BD002C07D01D432D
S11337C0F2D08020DB0080040343FF26DAE72B439A
S11337D003D00523DB08FF2C03D05B025B0AE4B2B1
S11337E0E4E7002B32D08020C00303435B025B0A72
S11337F0DCE73200173214DB80221E271204134345
S1133800BF1B1F2F0FDC144A944664442A00A540B2
S11338102E00A340751EAE41FA40334313430026E5
S1133820B0E70024D5E702225242961B1A00F24068
S1133830202F09D0094884466444A3402B435D1ECD
S1133840AB41002613439DE70023F7E70023ADE7D0
S11338503400BFE780FCFFFF82FCFFFFA2FCFFFFF8
S11338601C2101231B04984201D3000C10391B0AAC
S1133870984201D3000A08391B09984201D3000970
S1133880043902A2105C40187047C04604030202C7
S1133890010101010000000000000000014B186854
S11338A07047C0460C00002070B500260C4D0D4C2E
S11338B0641BA410A64209D1002600F085F80A4D25
S11338C00A4C641BA410A64205D170BDB300EB588A
S11338D098470136EEE7B300EB5898470136F2E714
S11338E0D4390000D4390000D4390000D83900009C
S11338F0010000002300000000000000220000007E
S113390061636F7300000000341700008416000028
S113391084160000821600002617000026170000F7
S11339201C17000082160000261700001C17000058
S113393026170000821600002C1700002C17000028
S11339402C170000BC170000D8230000BA23000085
S1133950742300009222000074230000AC230000B2
S11339607423000092220000BA230000BA2300004E
S1133970AC230000922200008A2200008A22000068
S11339808A220000F0250000382C0000F82A0000EC
S1133990F82A0000F42A0000102C0000102C00006B
S11339A0022C0000F42A0000102C0000022C00005D
S11339B0102C0000F42A0000182C0000182C000021
S11339C0182C00001C2E0000F8B5C046F8BC08BC3A
S11339D09E467047DD000000F8B5C046F8BC08BC40
S10B39E09E467047B50000008B
S11339E8401F000008000000010100001000002032
S11339F800000000000000000000000000000000BB
S1133A0800000000000000000000000000000000AA
S1133A18000000000000000000000000000000009A
S1133A28000000000000000000000000000000008A
S1133A38000000000000000000000000000000007A
S1133A48000000000000000000000000000000006A
S9030A29C9
